:100000000C945E000C94EA0B0C94EA0B0C94EA0B33
:100010000C94EA0B0C94EA0B0C94EA0B0C94EA0B8C
:100020000C94EA0B0C94EA0B0C94EA0B0C94EA0B7C
:100030000C94EA0B0C94EA0B0C94EA0B0C94EA0B6C
:100040000C94EA0B0C94EA0B0C94EA0B0C94EA0B5C
:100050000C94EA0B0C94EA0B0C94EA0B0C94EA0B4C
:100060000C94EA0B0C94EA0B0C94EA0B0C94EA0B3C
:100070000C94EA0B0C94EA0B0C94EA0B0C941A09FE
:100080000C94EA0B0C94EA0B0C94EA0B0C94EA0B1C
:100090000C94EA0B0C94EA0B0C94EA0B0C94EA0B0C
:1000A0000C94EA0B60006002806002600A0017E2B4
:1000B000600A600B80600B600C0017EA11241FBE01
:1000C000CFEFCDBFDFE7DEBFE4EAF0E040E017C0EE
:1000D000B591A59135912591059107FD0CC095919C
:1000E0008591EF01F92FE82F05900D92A217B30724
:1000F000D9F7FE0104C01D92A217B307E1F7EC3B4C
:10010000F40731F70E947A030C94A60BF894FFCF02
:100110000074302E7478743D22494E495449414C44
:10012000495A494E472E2E2E220074302E74787470
:100130003D2249324320444120434F4E5620494EF0
:100140004954204552524F52220070616765205336
:10015000746172745F6D656E750074302E7478749E
:100160003D224552524F522043484120534554228C
:100170000074302E7478743D224552524F52204301
:10018000484220534554220074302E7478743D2226
:100190004552524F52204348432053455422007445
:1001A000302E7478743D224552524F5220434844B9
:1001B0002053455422002564006E302E76616C3D3C
:1001C0000074302E7478743D224E504E22007430EC
:1001D0002E7478743D22504E50220074302E747864
:1001E000743D224641554C5459204F5220554E5291
:1001F00045434F474E495345442200636D645F7346
:0502000074617274003E
:1002050068076C094C836A9074A07AC0008068887E
:0602150000846C820081F0
:07021B00286E756C6C2900D0
:06022200286E696C290042
:100228002F923F924F926F927F928F929F92AF92AE
:10023800BF92CF92DF92EF92FF920F931F93CF93CB
:10024800DF93CDB7DEB72E97CDBFDEBF4C016B0174
:10025800380119821A828FEF9FEF8B839C831D824E
:100268001E824F83588729873A87A12CB12CD60143
:100278002D913D914C912A0D3B1D411DB7FC4A958E
:10028800F901849147FD8081811116C0F601208310
:1002980031834283F901849147FD8081853209F0D9
:1002A8000FC21901442EFFEF2F1A3F0A4F0AD60139
:1002B8002D923D924C921BC0853241F3B401082E19
:1002C800000C990B0E94A5074FEFA41AB40ACFCFD0
:1002D8002C32DCF02D3229F529813A8121602983DD
:1002E8003A830196A11DF60180839183A283F601CA
:1002F80080819181A281FC012491A7FD20812B326C
:1003080039F729813A812460EACF203221F4298102
:100318003A812860E4CF233251F429813A8120615F
:10032800DECF203321F429813A812260D8CFB7016A
:10033800C6010E949C098D839E8397FF0BC029816B
:100348003A81F1E02F2729833A8391958195910984
:100358008D839E8389819A8180FF03C08D7F8983E5
:100368009A83F60180819181A281FC012491A7FDE5
:1003780020812E3261F40196A11DF60180839183BC
:10038800A283B701C6010E949C098B839C83C60186
:100398000E945607182FD6012C9111968C9111970F
:1003A80012969C91E22FF82F849197FD8081082E58
:1003B800000C990B0E94D40B893609F44AC084F4C6
:1003C800833609F419C134F4853209F445C18136FC
:1003D800E1F050C18436E9F188360CF4E9C04AC12D
:1003E800803709F4B0C03CF48E3609F4D6C08F3695
:1003F80009F46DC03FC1853709F44AC0883709F44C
:1004080085C0833709F036C10DC1612F70E0A7019F
:10041800CE010B960E940000892B09F448C1F60111
:1004280080819181A2819C014A2F2F5F3F4F4F4FBE
:10043800208331834283FC012491A7FD2081AE01F2
:10044800455F5F4FBE016F5F7F4FC4010E94000090
:100458002BC1612F70E0970141E050E0CE010B966F
:100468000E94CC05892B09F422C1F6018081918173
:10047800A2810196A11D80839183A283AE01455F6D
:100488005F4FBE016F5F7F4FC4010E9459050CC1C9
:10049800612F70E0970140E050E0CE010B960E947A
:1004A800CC05892B09F403C1F60180819181A281D1
:1004B8000196A11D80839183A283AE01455F5F4FA2
:1004C800BE016F5F7F4FC4010E94D208EDC0612F4B
:1004D80070E0970140E050E0CE010B960E94CC05F9
:1004E800892B09F4E4C0F60180819181A2810196EB
:1004F800A11D80839183A283AE01455F5F4FBE013A
:100508006F5F7F4FC4010E94FC06CEC0612F70E070
:10051800970140E050E0CE010B960E94CC05892B54
:1005280009F4C5C0F60180819181A2819C014A2FFE
:100538002F5F3F4F4F4F208331834283FC0124912B
:10054800A7FD208120C0970140E050E060EF70E0F7
:10055800CE010B960E94CC05892B09F4A8C0F601A0
:1005680080819181A2810196A11D80839183A283BC
:100578008B859C85892B31F400E010E022E232E083
:1005880040E08CC028E7AE01455F5F4FBE016F5F5A
:100598007F4FC4010E946C0487C0A501460D571DFA
:1005A800612F70E09701CE010B960E9400007FC07A
:1005B800612F70E0A701CE010B960E940000892BE5
:1005C80009F475C0F60180819181A2819C014A2FAE
:1005D8002F5F3F4F4F4F208331834283FC0124918B
:1005E800A7FD2081AE01455F5F4FBE016F5F7F4F62
:1005F800C4010E94000058C0103809F058C0F60124
:1006080080819181A2810196A11D80839183A2831B
:10061800D701ED91FC911197CF0102968D939C9390
:10062800808126C0103809F042C0F601808191818E
:10063800A2810196A11D80839183A283D701ED91A8
:10064800FC911197CF0103968D939C932081318162
:10065800428100E010E022C0103849F5F6012081FF
:10066800318142812F5F3F4F4F4F20833183428337
:100678008B870EC085E28B87F60120823182428209
:1006880019821A821D821E828FEF9FEF8B839C83B3
:100698009E01255F3F4F40E801E010E0BE016F5F1B
:1006A8007F4FC4010E945F098A0D9B1D0AC0F60195
:1006B80080819181A2810196A11D80839183A2836B
:1006C800C5012E96CDBFDEBFDF91CF911F910F914F
:1006D800FF90EF90DF90CF90BF90AF909F908F905A
:0C06E8007F906F904F903F902F900895EE
:1006F400CF93DF93CDB7DEB76A97CDBFDEBFE0E619
:10070400F0E08CE180871082848D148E82E08093E7
:100714000204E0E6F4E08FE3828380E8828382E8E7
:1007240096E00E947C0B0E94CC0B60E171E080E0BB
:100734000E948E0B61E171E080E00E948E0B60EA02
:1007440076E881E090E00E94D70A2FEF33EC89E04D
:10075400215030408040E1F700C00000789481E6E9
:100764000E94B10B882329F06AE271E080E00E94C4
:100774008E0B6AE471E080E00E948E0B81E080932E
:100784000A601D8A1E8A82E08B8B88E0E2E0F0E634
:10079400DE011B9601900D928A95E1F76B857C85AD
:1007A40000E021E041E080E00E94D809882329F09C
:1007B4006AE571E080E00E948E0B8FE39CE901976B
:1007C400F1F700C000006D857E8500E021E041E086
:1007D40081E00E94D809882329F061E771E080E074
:1007E4000E948E0B8FE39CE90197F1F700C0000093
:1007F4006F85788900E021E041E082E00E94D80919
:10080400882329F068E871E080E00E948E0B8FE372
:100814009CE90197F1F700C0000069897A8900E03A
:1008240021E041E083E00E94D809882329F06FE9A0
:1008340071E080E00E948E0B8FE39CE90197F1F751
:1008440000C000000E94CC0B04C095E09A95F1F71B
:10085400000080910A608111F8CF8D899E899F9351
:100864008F9386EB91E0A0E0AF939F938F938E01DB
:100874000F5F1F4F1F930F930E94690B69EB71E089
:1008840080E00E943D0BB80180E80E943D0B8FEF91
:100894000E94DC0B8FEF0E94DC0B8FEF0E94DC0BBD
:1008A4008B89CDBFDEBF811106C061EC71E080E0B1
:1008B4000E948E0B63CF8B89813031F46EEC71E032
:1008C40080E00E948E0B5ACF6BED71E080E00E94B5
:0408D4008E0B54CF64
:1008D800AFE0B0E0E2E7F4E00C94F40A1C016B012D
:1008E80049835A832B83FB0182819381848095807D
:1008F800E080F180A680B78097FD03C0E894E1F816
:1009080002C081E090E0E981FA81408051806280F4
:1009180073809701207133272C833D838401E4FE83
:1009280007C0411451046104710411F00250110907
:10093800F701E870FF27EE83FF83E3FE02C0015052
:100948001109F6010084F185E02D3197EE87FF87C4
:10095800EA0DFB1D10829C01201B310B288739876B
:10096800C701827099278A879B87EB818E2FEE0FAC
:10097800990B9C01215431092C873D872E853F8591
:100988002230310530F48C819D81892B09F041C0DA
:100998005BC0411451046104710459F18E859F852F
:1009A80001978E879F87C2018F7099278A3091059A
:1009B80014F4C09602C0895A9F4FEC85FD857A973A
:1009C80048F49C012062215631092A31310510F47E
:1009D8000E94BB0BEE85FF85EA0DFB1D808301504D
:1009E800110984E076946794579447948A95D1F7CF
:1009F800C5CF88859985800F911F1816190674F23E
:100A0800101611060CF0BFCFEA85FB85EF2B31F6E7
:100A1800BACFE981FA8180819181A281B381892B42
:100A28008A2B8B2B89F0EE85FF85EA0DFB1D31970C
:100A38002B8120838E859F8502978E879F87FC0157
:100A4800EA0DFB1D80E38083EE81FF81EF2B59F0D7
:100A58002E853F85215031092E873F87F901EA0D00
:100A6800FB1D80E28083F601208531852150310904
:100A78008E859F85281B390B8A0D9B1DAC0160E86C
:100A88008401C1010E943D089C01F101808191818E
:100A980090FF06C0F60182819381821793070CF4B8
:0A0AA800C9012F96E2E10C94250B22
:100AB200A2E0B0E0EFE5F5E00C94F40A4C016B0122
:100AC200FB0122813381A480B58080819181898359
:100AD2009A8366807780FA01208031804280538039
:100AE200B201A10157FE07C044275527BA01421996
:100AF20053096409750937FD03C08D7F89839A8381
:100B0200950157FC05C0898182FD02C083FF02C0A6
:100B120021503109CE0101967C010AE010E0C601A4
:100B22000E94390657FC03C0298122FF0AC001979F
:100B3200F301E80FF91F57FC02C02BE209C02DE2B6
:100B420007C023FF06C00197F301E80FF91F20E257
:100B52002083E980FA80F601208531852150310910
:100B6200281B390B860D971DAC0160E88501C40175
:100B72000E943D089C01F4018081918190FF06C092
:100B8200F60182819381821793070CF4C9012296A0
:060B9200E2E10C94250BCA
:100B9800CF93DF93DC01F90168387105F1F05CF45B
:100BA8006138710561F164387105C9F16038710502
:100BB80009F056C034C0603C710561F1603F7105B1
:100BC80009F443C0603A710509F04AC0C081D18177
:100BD800CE010296808391832AC0C081D181CE0143
:100BE800029680839183452B39F04881042E000CAE
:100BF800550B660B770B21C0488150E02EC0C08191
:100C0800D181CE01049680839183488159816A817C
:100C18007B8113C0C081D181CE0102961AC0C081E8
:100C2800D181CE01029680839183452BA1F0488122
:100C38005981052E000C660B770B4D935D936D93D0
:100C48007C93139781E090E00DC0C081D181CE01E3
:100C58000396808391834881598160E070E0EDCFED
:0A0C680080E090E0DF91CF91089545
:100C7200A0E0B0E0EFE3F6E00C94F60ADC01280114
:100C82001696AD90BC901797F701808191811296CC
:100C9200ED91FC9113971896CD91DC9119972197BC
:100CA200F7FF02C0E1E0F0E0CA0DDB1D1882690126
:100CB200A1E0B0E08F01021B130B4C01F2E08F2286
:100CC2009924052C000C66087708CE018A199B0925
:100CD200CA15DB0519F1411551056105710589F048
:100CE200CB01BA01A30192010E94750ACA01A62F83
:100CF200B72F605D6A9341E0C41AD108A901BC0113
:100D0200E4CF98012C0D3D1D121613064CF31C1452
:100D12001D0434F48114910419F702C080E090E0BC
:100D2200AB2B31F4F701208131812F7E2083318377
:0A0D3200CDB7DEB7E0E10C94270B0B
:100D3C006F927F928F92CF92DF92EF923A01862E32
:100D4C00880F809307090EC08091050982FF0AC0A5
:100D5C0081E0809305098FE99FE00197F1F700C0CE
:100D6C00000004C080910509807C71F38091050915
:100D7C0084FF2EC083E08093040981E030C0E82C0E
:100D8C006301C90ED11CE11CF6018491E7FC808142
:100D9C00809308090EC08091050982FF0AC081E08A
:100DAC0080930509EFE9FFE03197F1F700C00000EF
:100DBC0004C08091050986FFEECF8091050984FF60
:100DCC0005C083E08093040981E009C09F5F01C0E6
:100DDC0090E09217A0F283E08093040980E0EF90FA
:0C0DEC00DF90CF908F907F906F90089563
:100DF800A2E0B0E0E2E0F7E00C94F80A5C016B01D5
:100E0800FB0122813381848095808081918189834F
:100E18009A836680778037FD03C08D7F89839A83A4
:100E2800FA014081518162817381CE0101967C0172
:100E380008E010E09401C6010E943906298124FFC8
:100E480006C00197F301E80FF91F20E320832981E9
:100E580023FF06C00197F301E80FF91F20E2208362
:100E6800E980FA80F6012085318521503109281B57
:100E7800390B860D971DAC0160E88401C5010E94FD
:100E88003D089C01F5018081918190FF06C0F60123
:100E980082819381821793070CF4C9012296EEE0B0
:040EA8000C94290B72
:100EAC00CF92DF92EF92DC0190E0292F30E0220FFD
:100EBC00331F6901032E000CEE086E2DA6014B5F4B
:100ECC005D4F6F4F6A01E62EFA018491E7FC808139
:100EDC0081110DC02F5F3F4F032E000C440B2B5F75
:100EEC003D4F4F4FF901849147FD808124C0CD9037
:100EFC00DD90EC901297F6014491E7FC408184134D
:100F0C0015C02F5F3F4F032E000C440B2B5F3D4F42
:100F1C004F4FF901949147FD90815FEFC51AD50AA7
:100F2C00E50ACD92DD92EC92129701C09F5F9B3047
:0E0F3C0008F4BBCF892FEF90DF90CF9008957F
:100F4A000F931F93CF93DF93DB01109719F48FEF61
:100F5A009FEF3DC02D913C91119730FF25C0179608
:100F6A004D915C91189715962D913C9116974217C1
:100F7A00530778F41296ED91FC9113978083129699
:100F8A002D913C9113972F5F3F4F12962D933C93CF
:100F9A00139717962D913C9118972F5F3F4F1796ED
:100FAA002D933C93189713C01D96ED91FC911E97B3
:100FBA00309769F2EB01092F182F0995892B39F619
:100FCA008F81988501968F839887812F902FDF9143
:080FDA00CF911F910F910895C2
:100FE2006F927F928F92EF92FF920F931F93CF9304
:100FF200DF93CDB7DEB76197CDBFDEBFFE0131967D
:1010020051E1DF011D925A95E9F7A2E0B1E0A9830F
:10101200BA838B839C8377FF09C08FE490E080932F
:101022000060909301608FEF9FEF19C03901842E09
:101032007C01615071096E837F839801682DA30141
:10104200CF010E940D0B488559852E813F814217A1
:10105200530708F49A01F701E20FF31F1082619619
:10106200CDBFDEBFDF91CF911F910F91FF90EF9027
:081072008F907F906F900895AC
:10107A006F927F928F92AF92BF92CF92DF92EF924E
:10108A00FF920F931F93CF93DF935C013A01862E51
:10109A00E901670181E0C822DD24E0FC03C02017D2
:1010AA00310758F09E01682DA301C5010E940F0A5D
:1010BA00C017D10710F0CE0118C07801EC1AFD0A4A
:1010CA00E114F10449F0B50180E290E00E94A5071D
:1010DA0081E0E81AF108F4CFCD2831F49E01682D99
:1010EA00A301C5010E940F0AC801DF91CF911F9188
:1010FA000F91FF90EF90DF90CF90BF90AF908F90BD
:06110A007F906F90089534
:10111000A3E8B0E0EEE8F8E00C94FA0A5C014901BB
:10112000CF57DF4F488359836A83C158D040C12CC1
:10113000D12CCF57DF4F2881C158D040CE57DF4F39
:101140009881C258D040CD57DF4F8881C358D040D6
:10115000E22FF92F949187FD90819923E9F0740192
:10116000860120E830E0AE014F5F5F4FBE016F5750
:101170007F4FC5010E9414018C0D9D1D8C159D058E
:101180004CF48FE490E080930060909301608FEFC7
:101190009FEF03C06C01CDCFC601CD57DF4FECE010
:0411A0000C942B0B75
:1011A400A2E0B0E0E8EDF8E00C94F80A5C016B0111
:1011B400FB012281338184809580808191818983A0
:1011C4009A836680778037FD03C08D7F89839A83F5
:1011D400FA014081518162817381CE0101967C01C3
:1011E4000AE010E09401C6010E943906E980FA8001
:1011F400F6012085318521503109281B390B860DD4
:10120400971DAC0160E88401C5010E943D089C0162
:10121400F5018081918190FF06C0F601828193815E
:10122400821793070CF4C9012296EEE00C94290B63
:101234001F920F920FB60F9211240F931F932F93A7
:101244003F934F935F936F937F938F939F93AF934A
:10125400BF93EF93FF93CF93DF93CDB7DEB72A9776
:10126400CDBFDEBF44E16AE08E010F5F1F4FC801AE
:101274000E94430AB80180E82BEF31E040E00E946D
:10128400970A892B11F010920A602A96CDBFDEBF0F
:10129400DF91CF91FF91EF91BF91AF919F918F918A
:1012A4007F916F915F914F913F912F911F910F917A
:0A12B4000F900FBE0F901F901895C9
:1012BE006F927F928F92CF92DF92EF92FF920F9367
:1012CE001F93CF93DF936C01FB013901842EC8016C
:1012DE00C281D38104811581E080F180232B242BE0
:1012EE0031F42BE1622E22E0722E20E0822E009746
:1012FE0021F4882DB3010E94530BD7FD04C0C817EB
:10130E00D90708F4CE019C01682DA301C6010E94E5
:10131E003D08DF91CF911F910F91FF90EF90DF90DD
:0A132E00CF908F907F906F9008958C
:10133800DC012D913D914C911297F901849147FD63
:1013480080818A3221F080E090E07AE011C02F5F3E
:101358003F4F4F4F2D933D934C93DB01ED91FC9103
:101368001197CF0102968D939C9380819181089566
:101378002D913D914C911297F901549147FD50815F
:1013880050535A3080F4789FF001799FF00D112462
:10139800CF01850F911D2F5F3F4F4F4F2D933D93E9
:0813A8004C931297E5CF089564
:1013B0000F931F93CF93DF9300D00F92CDB7DEB77B
:1013C000611590E1790710F06FEF7FE090E0880FF2
:1013D000991F8865898380E8489FA001112490E2C5
:1013E000099F8001112480E1289F90011124042B82
:1013F000202B472F4F70242B2A836B83AE014F5F26
:101400005F4F60E823E080910B600E949E06239668
:0E141000CDBFDEBFDF91CF911F910F910895E8
:10141E006F927F928F92CF92DF92EF920F931F93E4
:10142E00CF93DF938C016A01E62EE9013A01862EF5
:10143E00620E731E811C37FD8A94C614D704E8040D
:10144E0079F0F6018491E7FC8081B801082E000C3A
:10145E00990B0E94A5078FEFC81AD80AE80AEDCF9C
:10146E00CE01DF91CF911F910F91EF90DF90CF9032
:08147E008F907F906F9008959C
:10148600EF92FF920F931F93CF93DF938C01F62E6B
:10149600E42EC0E0D0E010C00E94C40B882359F0AF
:1014A6000E94E30BF801ED0FF11D8083882391F074
:1014B600DF5FC0E001C0CF5F2D2F30E08F2D90E0C1
:1014C60001972817390714F4CE1530F3F801ED0FFC
:1014D600F11D10828D2FDF91CF911F910F91FF90FB
:0414E600EF900895E6
:1014EA00A1E21A2EAA1BBB1BFD010DC0AA1FBB1F1E
:1014FA00EE1FFF1FA217B307E407F50720F0A21B90
:10150A00B30BE40BF50B661F771F881F991F1A94FC
:10151A0069F760957095809590959B01AC01BD0126
:04152A00CF01089550
:10152E00CF92DF92EF926B01E82EF6018491E7FCE9
:10153E008081F901549147FD508185130BC088239A
:10154E0041F08FEFC81AD80AE80A2F5F3F4F4F4F6E
:10155E00ECCF582F90E0851B9109EF90DF90CF9044
:02156E000895DE
:10157000880F809307090CC08091050982FF08C07D
:10158000E0E0F9E081E0858383E0848381E00895F1
:1015900080910509807C81F3E0E0F9E08581829506
:0E15A0008F7091E0892793E094838170089505
:1015AE00CF93DF932CE020930204C0E0D9E01B829E
:1015BE009B01AC01220F331F441F551F60E074E2E4
:1015CE0084EF90E00E94750A25502E8381E08D8372
:0A15DE008B8380E0DF91CF91089528
:1015E8002F923F924F925F926F927F928F929F922B
:1015F800AF92BF92CF92DF92EF92FF920F931F9319
:10160800CF93DF93CDB7DEB7CA1BDB0BCDBFDEBFF1
:02161800099433
:10161A00A2E0B0E0E3E1FBE00C94020B8C01298329
:10162A003A839E012F5F3F4F0E948808F80120816C
:10163A0024FF02C08FEF9FEF2296E4E00C94330B55
:10164A002A88398848885F846E847D848C849B8448
:10165A00AA84B984C884DF80EE80FD800C811B8156
:10166A00AA81B981CE0FD11DCDBFDEBFED0108958C
:10167A00CF92DF92EF926B01E82E06C09FEFC91A54
:10168A00D90AE90A0E94DC0BF6018491E7FC808101
:0C169A008111F4CFEF90DF90CF90089505
:1016A600CF92DF92EF926B01E82EA82FCB01FC01BF
:1016B6002491A7FD2081222319F00196A11DF7CFC1
:0C16C6008C199D09EF90DF90CF900895E3
:1016D200A0E0B0E0EFE6FBE00C94040B9E01265F75
:1016E2003F4F4F81588569858D819E810E949A0B5B
:0616F200E2E00C94350B50
:1016F800E0E4F4E021E0218322E02283E0E2F8E064
:101708008087918780E885838681806C868383E0E3
:041718008783089526
:10171C000E943D0B8FEF0E94DC0B8FEF0E94DC0BC5
:08172C008FEF0E94DC0B089511
:101734000F931F9389019A01462F6FEF7FE70E9451
:08174400F1071F910F910895B8
:10174C00EC010E94EF0B0E94EE0BCE010E94F00BFD
:06175C00CE010E94EC0B1F
:1017620080930B600E94B80A811102C081E0089543
:0417720080E0089576
:101776009C01215631092A31310510F48F759927BC
:021786000895C4
:1017880080912408882314F481E0089580E0089566
:1017980002C00E94E30B0E94C40B8111FACF089586
:1017A8009C01215431092A31310508F480620895D9
:0E17B8009091240895FFFCCF8093220808959D
:0E17C600809124088823E4F78091200808957C
:0417D4000C94000071
:0417D8000E948600E5
:0217DC0008956E
:0217DE0008956C
:0217E00008956A
:0817E200000800080008640083
:0117EA00609E
:00000001FF
