:100000000C9458000C9482160C9482160C94821650
:100010000C9482160C9482160C9482160C94821600
:100020000C9482160C9482160C9482160C948216F0
:100030000C9482160C9482160C9482160C948216E0
:100040000C9482160C9482160C9482160C948216D0
:100050000C9482160C9482160C9482160C948216C0
:100060000C9482160C9482160C9482160C948216B0
:100070000C9482160C9482160C9482160C944613DF
:100080000C9482160C9482160C9482160C94821690
:100090000C9482160C9482160C9482160C94821680
:1000A0000C94821660006003806003600400023FCD
:1000B00011241FBECFEFCDBFDFE7DEBFE4EAF0E0E3
:1000C00040E017C0B591A59135912591059107FDA7
:1000D0000CC095918591EF01F92FE82F05900D92B5
:1000E000A217B307D9F7FE0104C01D92A217B307E8
:1000F000E1F7E03BF40731F70E9420010C943E1633
:04010000F894FFCFA1
:100104002564007541006D41000074302E747874CC
:100114003D22494E495449414C495A494E472E2E95
:100124002E220074302E7478743D224932432044C8
:100134004120434F4E5620494E4954204552524F78
:10014400522200706167652053746172745F6D653B
:100154006E750074302E7478743D224552524F529D
:100164002043484120534554220074302E7478743F
:100174003D224552524F5220434842205345542277
:100184000074302E7478743D224552524F522043ED
:10019400484320534554220074302E7478743D2211
:1001A4004552524F52204348442053455422006E36
:1001B400302E76616C3D0074392E7478743D224E75
:1001C400504E220074392E7478743D22504E5022C1
:1001D4000074392E7478743D224641554C5459208C
:1001E4004F5220554E5245434F474E4953454422A2
:1001F4000074002E7478743D224222002E747874A8
:100204003D224322002E7478743D22452200636D02
:08021400645F737461727400F1
:10021C0068076C094C836A9074A07AC00080688867
:06022C0000846C820081D9
:07023200286E756C6C2900B9
:06023900286E696C29002B
:01023F00605E
:10024000CF93DF93CDB7DEB7AF97CDBFDEBFE0E68C
:10025000F0E08CE180871082848D148E82E08093A0
:100260000204E0E6F4E08FE3828380E882830E9468
:100270001B1682E896E00E94D0150E9464166DE07D
:1002800071E080E00E940F166EE071E080E00E9455
:100290000F1660EA76E881E090E00E9403152FEFE8
:1002A00033EC49E0215030404040E1F700C000000D
:1002B000789481E60E944916882329F067E271E06C
:1002C00080E00E940F1667E471E080E00E940F1644
:1002D0001C821D821E821F821982188E198E1A8E10
:1002E0001B8E1C8E1D8E84E690E08E8F9F8F00E00B
:1002F00021E041E060E070E080E00E940414882387
:1003000029F067E571E080E00E940F168FE39CE919
:100310000197F1F700C0000000E021E041E060E05B
:1003200070E081E00E940414882329F06EE671E0F9
:1003300080E00E940F16AFE3BCE91197F1F700C00F
:10034000000000E021E041E060E070E082E00E9417
:100350000414882329F065E871E080E00E940F16FC
:100360008FE39CE90197F1F700C0000000E021E075
:1003700041E064E670E083E00E940414882329F0E1
:100380006CE971E080E00E940F16AFE3BCE91197C1
:10039000F1F700C000000E94641681E080930260C3
:1003A00004C0B5E0BA95F1F70000809102608111B8
:1003B000F8CF10E01FC186E098E0888F998F83EF17
:1003C00097E08A8F9B8F89E797E08C8F9D8F8E2D8A
:1003D00090E0810F911D63E070E00E949515FC0193
:1003E000EE0FFF1F21E030E02C0F3D1FE20FF31F47
:1003F0008789908D86529240878B908F688D798DFA
:1004000000E021E041E080E00E940414882329F00C
:1004100067E571E080E00E940F168FE39CE9019789
:10042000F1F700C000006A8D7B8D00E021E041E023
:1004300081E00E940414882329F06EE671E080E0D8
:100440000E940F16AFE3BCE91197F1F700C000005E
:100450006C8D7D8D00E021E041E082E00E9404147B
:10046000882329F065E871E080E00E940F168FE391
:100470009CE90197F1F700C0000011111DC091E047
:10048000E9120DC06AE070E083E00E94900E9C01CA
:1004900040E050E028A339A34AA35BA34AC06AE026
:1004A00070E084E00E94900E9C0140E050E02CA39C
:1004B0003DA34EA35FA33DC01130E9F431E0E31248
:1004C0000DC06AE070E084E00E94900E9C0140E064
:1004D00050E028A339A34AA35BA32BC06AE070E0D5
:1004E00081E00E94900E9C0140E050E02CA33DA3CF
:1004F0004EA35FA31EC01230E1F431E0E3120DC041
:100500006AE070E081E00E94900E9C0140E050E0C3
:1005100028A339A34AA35BA30CC06AE070E083E080
:100520000E94900E9C0140E050E02CA33DA34EA3FE
:100530005FA3E39402C0EE24E39432E03E1508F09A
:100540003ACF11111BC088A199A1AAA1BBA1853FD7
:100550009140A105B10590F08CA19DA1AEA1BFA1D4
:10056000853F9140A105B10548F08981882319F0A4
:1005700081E0898342C01A8282E089831130E1F4EC
:1005800088A199A1AAA1BBA1853F9140A105B10570
:1005900098F08CA19DA1AEA1BFA1853F9140A1057E
:1005A000B10550F08981882319F081E0898325C045
:1005B00081E08A8382E089831230D9F488A199A1ED
:1005C000AAA1BBA1853F9140A105B10590F08CA1E6
:1005D0009DA1AEA1BFA1853F9140A105B10548F005
:1005E0008981882319F081E0898307C082E08A83AA
:1005F00089831F5F133008F49ECF10E020C186E08E
:1006000098E0888F998F83EF97E08A8F9B8F89E797
:1006100097E08C8F9D8F8E2D90E0810F911D63E070
:1006200070E00E949515FC01EE0FFF1F41E050E0C5
:100630004C0F5D1FE40FF51F8789908D8A5D9D4FDC
:10064000878B908F688D798D00E021E041E080E01C
:100650000E940414882329F067E571E080E00E947D
:100660000F168FE39CE90197F1F700C000006A8D37
:100670007B8D00E021E041E081E00E9404148823AA
:1006800029F06EE671E080E00E940F16AFE3BCE94E
:100690001197F1F700C000006C8D7D8D00E021E026
:1006A00041E082E00E940414882329F065E871E0AB
:1006B00080E00E940F168FE39CE90197F1F700C0DC
:1006C000000011111DC091E0E9120DC06AE070E058
:1006D00082E00E94900E9C0140E050E028A739A7DC
:1006E0004AA75BA74AC06AE070E085E00E94900ECE
:1006F0009C0140E050E02CA73DA74EA75FA73DC05E
:100700001130E9F431E0E3120DC06AE070E085E0F9
:100710000E94900E9C0140E050E028A739A74AA70C
:100720005BA72BC06AE070E080E00E94900E9C0105
:1007300040E050E02CA73DA74EA75FA71EC0123097
:10074000E1F431E0E3120DC06AE070E080E00E9465
:10075000900E9C0140E050E028A739A74AA75BA76C
:100760000CC06AE070E082E00E94900E9C0140E0C4
:1007700050E02CA73DA74EA75FA7E39402C0EE244C
:10078000E39432E03E1508F03ACF11111BC088A562
:1007900099A5AAA5BBA5853F9140A105B10590F0FB
:1007A0008CA59DA5AEA5BFA5853F9140A105B1052E
:1007B00048F08981882319F081E0898343C01A8237
:1007C00083E089831130E1F488A599A5AAA5BBA58A
:1007D000853F9140A105B10598F08CA59DA5AEA5DA
:1007E000BFA5853F9140A105B10550F089818823BF
:1007F00019F081E0898326C081E08A8383E08983C0
:100800001230E1F488A599A5AAA5BBA5853F914022
:10081000A105B10598F08CA59DA5AEA5BFA5853F06
:100820009140A105B10550F08981882319F081E03C
:10083000898308C082E08A8383E089831F5F133045
:1008400008F49DCF1981123009F037C38A818111D4
:1008500010C181E08B83188E198E00E021E041E009
:1008600060E070E080E00E940414882329F067E5CE
:1008700071E080E00E940F168FE39CE90197F1F789
:1008800000C0000000E021E041E060E070E181E0B4
:100890000E940414882329F06EE671E080E00E9433
:1008A0000F16AFE3BCE91197F1F700C0000000E0BC
:1008B00021E041E060E070E082E00E9404148823BF
:1008C00029F065E871E080E00E940F168FE39CE953
:1008D0000197F1F700C000001AC0C88CD98C92E3D0
:1008E000C90ED11CC88ED98E00E021E041E0B601CE
:1008F00080E00E940414882329F067E571E080E01D
:100900000E940F16A1E0CA16A0E1DA0640F46AE0E0
:1009100070E080E00E94900E883C9105F0F264E661
:1009200070E080E00E94900E8887998764E670E00E
:1009300082E00E94FA0F4C01A12CB12C8A869B8682
:10094000AC86BD86188E198E00E021E041E060E0A3
:1009500070E080E00E940414882329F067E571E0CC
:1009600080E00E940F168FE39CE90197F1F700C029
:10097000000000E021E041E060E070E081E00E94E2
:100980000414882329F06EE671E080E00E940F16BF
:10099000AFE3BCE91197F1F700C0000000E021E0EF
:1009A00041E060E070E182E00E940414882329F0B5
:1009B00065E871E080E00E940F168FE39CE90197E3
:1009C000F1F700C000001AC0C88CD98C92E3C90EA0
:1009D000D11CC88ED98E00E021E041E0B60180E054
:1009E0000E940414882329F067E571E080E00E94EA
:1009F0000F16A1E0CA16A0E1DA0640F46AE070E042
:100A000080E00E94900E883C9105F0F26AE070E070
:100A100085E00E94FA0FA0E0B0E088169906AA06C9
:100A2000BB06A0F464E670E080E00E94900E888728
:100A3000998764E670E085E00E94FA0FA0E0B0E0DC
:100A40008A879B87AC87BD8782E08B832A853B851D
:100A50004C855D85A8EEB3E00E9433162885398564
:100A600040E050E00E94A1142C833D834E835F83BD
:100A700063C5813009F00FC11B821A8E1B8E00E006
:100A800021E041E060E070E180E00E9404148823EE
:100A900029F067E571E080E00E940F168FE39CE982
:100AA0000197F1F700C0000000E021E041E060E0C4
:100AB00070E081E00E940414882329F06EE671E062
:100AC00080E00E940F16AFE3BCE91197F1F700C078
:100AD000000000E021E041E060E070E082E00E9480
:100AE0000414882329F065E871E080E00E940F1665
:100AF0008FE39CE90197F1F700C000001AC0CA8C8F
:100B0000DB8C92E3C90ED11CCA8EDB8E00E021E0A3
:100B100041E0B60181E00E940414882329F06EE6CA
:100B200071E080E00E940F16A1E0CA16A0E1DA068B
:100B300040F46AE070E082E00E94900E883C9105EB
:100B4000F0F264E670E082E00E94900E8887998758
:100B500064E670E080E00E94FA0F4C01A12CB12CF9
:100B60008A869B86AC86BD861A8E1B8E00E021E0AD
:100B700041E060E070E080E00E940414882329F0E6
:100B800067E571E080E00E940F168FE39CE9019712
:100B9000F1F700C0000000E021E041E060E070E01B
:100BA00081E00E940414882329F06EE671E080E061
:100BB0000E940F16AFE3BCE91197F1F700C00000E7
:100BC00000E021E041E060E070E182E00E94041476
:100BD000882329F065E871E080E00E940F168FE31A
:100BE0009CE90197F1F700C000001AC0CA8CDB8CA9
:100BF00092E3C90ED11CCA8EDB8E00E021E041E0F9
:100C0000B60181E00E940414882329F06EE671E0A9
:100C100080E00E940F16A1E0CA16A0E1DA0640F4B7
:100C20006AE070E082E00E94900E883C9105F0F24C
:100C30006AE070E085E00E94FA0FA0E0B0E088165C
:100C40009906AA06BB06A0F464E670E082E00E9462
:100C5000900E8887998764E670E085E00E94FA0F1D
:100C6000A0E0B0E08A879B87AC87BD8782E08B835A
:100C70002A853B854C855D85A8EEB3E00E9433163E
:100C80002885398540E050E00E94A1142C833D83E3
:100C90004E835F8351C4823009F04EC41B821C8E88
:100CA0001D8E00E021E041E060E070E180E00E9404
:100CB0000414882329F067E571E080E00E940F1694
:100CC0008FE39CE90197F1F700C0000000E021E00C
:100CD00041E060E070E081E00E940414882329F084
:100CE0006EE671E080E00E940F16AFE3BCE9119759
:100CF000F1F700C0000000E021E041E060E070E0BA
:100D000082E00E940414882329F065E871E080E005
:100D10000E940F168FE39CE90197F1F700C00000D5
:100D20001AC0CC8CDD8C92E3C90ED11CCC8EDD8E2A
:100D300000E021E041E0B60182E00E940414882333
:100D400029F065E871E080E00E940F16A1E0CA1664
:100D5000A0E1DA0640F46AE070E085E00E94900EBF
:100D6000883C9105F0F264E670E085E00E94900E08
:100D70008887998764E670E080E00E94FA0F4C0152
:100D8000A12CB12C8A869B86AC86BD861C8E1D8EBE
:100D900000E021E041E060E070E080E00E940414A7
:100DA000882329F067E571E080E00E940F168FE349
:100DB0009CE90197F1F700C0000000E021E041E06C
:100DC00060E070E181E00E940414882329F06EE65F
:100DD00071E080E00E940F16AFE3BCE91197F1F7D4
:100DE00000C0000000E021E041E060E070E082E04F
:100DF0000E940414882329F065E871E080E00E94D5
:100E00000F168FE39CE90197F1F700C000001AC0AC
:100E1000CC8CDD8C92E3C90ED11CCC8EDD8E00E033
:100E200021E041E0B60182E00E940414882329F009
:100E300065E871E080E00E940F16A1E0CA16A0E10B
:100E4000DA0640F46AE070E085E00E94900E883C8B
:100E50009105F0F26AE070E082E00E94FA0FA0E0F3
:100E6000B0E088169906AA06BB06A0F464E670E016
:100E700085E00E94900E8887998764E670E082E0A2
:100E80000E94FA0FA0E0B0E08A879B87AC87BD87FD
:100E900081E08B832A853B854C855D85A8EEB3E098
:100EA0000E9433162885398540E050E00E94A11445
:100EB0002C833D834E835F833FC3133009F03CC3D3
:100EC0008A81811112C182E08B8380E090E1888F5A
:100ED000998F00E021E041E060E070E180E00E9455
:100EE0000414882329F067E571E080E00E940F1662
:100EF0008FE39CE90197F1F700C0000000E021E0DA
:100F000041E060E070E181E00E940414882329F050
:100F10006EE671E080E00E940F16AFE3BCE9119726
:100F2000F1F700C0000000E021E041E060E070E087
:100F300082E00E940414882329F065E871E080E0D3
:100F40000E940F168FE39CE90197F1F700C00000A3
:100F500019C0C88CD98C92E3C91AD108C88ED98E11
:100F600000E021E041E0B60180E00E940414882303
:100F700029F067E571E080E00E940F16A4E6CA162A
:100F8000D10440F06AE070E081E00E94900E883C5D
:100F90009105F8F264E670E081E00E94900E888787
:100FA000998764E670E082E00E94FA0F4C01A12C60
:100FB000B12C8A869B86AC86BD8680E090E1888FC6
:100FC000998F00E021E041E060E070E180E00E9464
:100FD0000414882329F067E571E080E00E940F1671
:100FE0008FE39CE90197F1F700C0000000E021E0E9
:100FF00041E060E070E081E00E940414882329F061
:101000006EE671E080E00E940F16AFE3BCE9119735
:10101000F1F700C0000000E021E041E060E070E195
:1010200082E00E940414882329F065E871E080E0E2
:101030000E940F168FE39CE90197F1F700C00000B2
:1010400019C0C88CD98C92E3C91AD108C88ED98E20
:1010500000E021E041E0B60180E00E940414882312
:1010600029F067E571E080E00E940F16A4E6CA1639
:10107000D10440F06AE070E081E00E94900E883C6C
:101080009105F8F26AE070E085E00E94FA0FA0E0B6
:10109000B0E088169906AA06BB06A0F464E670E0E4
:1010A00081E00E94900E8887998764E670E085E071
:1010B0000E94FA0FA0E0B0E08A879B87AC87BD87CB
:1010C00081E08B832A853B854C855D85A8EEB3E066
:1010D0000E9433162885398540E050E00E94A11413
:1010E0002C833D834E835F8327C2813009F011C179
:1010F00082E08B8380E090E18A8F9B8F00E021E08B
:1011000041E060E070E180E00E940414882329F04F
:1011100067E571E080E00E940F168FE39CE901977C
:10112000F1F700C0000000E021E041E060E070E184
:1011300081E00E940414882329F06EE671E080E0CB
:101140000E940F16AFE3BCE91197F1F700C0000051
:1011500000E021E041E060E070E182E00E940414E0
:10116000882329F065E871E080E00E940F168FE384
:101170009CE90197F1F700C0000019C0CA8CDB8C14
:1011800092E3C91AD108CA8EDB8E00E021E041E06B
:10119000B60181E00E940414882329F06EE671E014
:1011A00080E00E940F16A4E6CA16D10440F06AE05F
:1011B00070E083E00E94900E883C9105F8F264E6AE
:1011C00070E083E00E94900E8887998764E670E063
:1011D00080E00E94FA0F4C01A12CB12C8A869B86DC
:1011E000AC86BD8680E090E18A8F9B8F00E021E095
:1011F00041E060E070E080E00E940414882329F060
:1012000067E571E080E00E940F168FE39CE901978B
:10121000F1F700C0000000E021E041E060E070E193
:1012200081E00E940414882329F06EE671E080E0DA
:101230000E940F16AFE3BCE91197F1F700C0000060
:1012400000E021E041E060E070E182E00E940414EF
:10125000882329F065E871E080E00E940F168FE393
:101260009CE90197F1F700C0000019C0CA8CDB8C23
:1012700092E3C91AD108CA8EDB8E00E021E041E07A
:10128000B60181E00E940414882329F06EE671E023
:1012900080E00E940F16A4E6CA16D10440F06AE06E
:1012A00070E083E00E94900E883C9105F8F26AE0BD
:1012B00070E085E00E94FA0FA0E0B0E08816990681
:1012C000AA06BB0698F41B8264E670E083E00E94E5
:1012D000900E8887998764E670E085E00E94FA0F97
:1012E000A0E0B0E08A879B87AC87BD872A853B85D5
:1012F0004C855D85A8EEB3E00E94331628853985BC
:1013000040E050E00E94A1142C833D834E835F8314
:1013100013C1823009F010C181E08B8380E090E13D
:101320008C8F9D8F00E021E041E060E070E180E083
:101330000E940414882329F067E571E080E00E9490
:101340000F168FE39CE90197F1F700C0000000E061
:1013500021E041E060E070E081E00E940414882315
:1013600029F06EE671E080E00E940F16AFE3BCE961
:101370001197F1F700C0000000E021E041E060E0DB
:1013800070E182E00E940414882329F065E871E08E
:1013900080E00E940F168FE39CE90197F1F700C0EF
:1013A000000019C0CC8CDD8C92E3C91AD108CC8E18
:1013B000DD8E00E021E041E0B60182E00E940414ED
:1013C000882329F065E871E080E00E940F16A4E60A
:1013D000CA16D10440F06AE070E084E00E94900EEA
:1013E000883C9105F8F264E670E084E00E94900E7B
:1013F0008887998764E670E080E00E94FA0F4C01CC
:10140000A12CB12C8A869B86AC86BD8680E090E1BB
:101410008C8F9D8F00E021E041E060E070E080E093
:101420000E940414882329F067E571E080E00E949F
:101430000F168FE39CE90197F1F700C0000000E070
:1014400021E041E060E070E181E00E940414882323
:1014500029F06EE671E080E00E940F16AFE3BCE970
:101460001197F1F700C0000000E021E041E060E0EA
:1014700070E182E00E940414882329F065E871E09D
:1014800080E00E940F168FE39CE90197F1F700C0FE
:10149000000019C0CC8CDD8C92E3C91AD108CC8E27
:1014A000DD8E00E021E041E0B60182E00E940414FC
:1014B000882329F065E871E080E00E940F16A4E619
:1014C000CA16D10440F06AE070E084E00E94900EF9
:1014D000883C9105F8F26AE070E082E00E94FA0F21
:1014E000A0E0B0E088169906AA06BB0698F464E668
:1014F00070E084E00E94900E8887998764E670E02F
:1015000082E00E94FA0FA0E0B0E08A879B87AC8758
:10151000BD871B822A853B854C855D85A8EEB3E09F
:101520000E9433162885398540E050E00E94A114BE
:101530002C833D834E835F838F818F938E818F9326
:101540008D818F938C818F9384E091E0A0E0AF93A5
:101550009F938F932E01BEE04B0E511C5F924F92D2
:101560000E94BD1563EB71E080E00E94691520E8E0
:10157000622E862DB2010E9469158FEF0E947416AB
:101580008FEF0E9474168FEF0E947416CDBFDEBFDE
:10159000123031F46BEB71E080E00E940F160DC049
:1015A000133031F468EC71E080E00E940F1605C042
:1015B00065ED71E080E00E940F1665EF71E080E05C
:1015C0000E9469158A81A82EB12C1F928F930F2E2D
:1015D000F4E0CF2EF1E0DF2EF0E0EF2EF02DEF92D1
:1015E000DF92CF928E01025F1F4F1F930F930E94D5
:1015F000BD15862DB2010E94691567EF71E080E08C
:101600000E940F1665EF71E080E00E9469158B81E2
:10161000882E912C1F928F93EF92DF92CF921F937F
:101620000F930E94BD15862DB2010E94691560E0DE
:1016300072E080E00E940F1665EF71E080E00E948A
:10164000691583E090E0881999098A199B099F938D
:101650008F93EF92DF92CF921F930F930E94BD154D
:10166000862DB2010E94691569E072E080E00E9457
:0A1670000F16CDBFDEBF0C94680119
:10167A002F923F924F926F927F928F929F92AF9248
:10168A00BF92CF92DF92EF92FF920F931F93CF9365
:10169A00DF93CDB7DEB72E97CDBFDEBF4C016B010E
:1016AA00380119821A828FEF9FEF8B839C831D82E8
:1016BA001E824F83588729873A87A12CB12CD601DD
:1016CA002D913D914C912A0D3B1D411DB7FC4A9528
:1016DA00F901849147FD8081811116C0F6012083AA
:1016EA0031834283F901849147FD8081853209F073
:1016FA000FC21901442EFFEF2F1A3F0A4F0AD601D3
:10170A002D923D924C921BC0853241F3B401082EB2
:10171A00000C990B0E94D1114FEFA41AB40ACFCF33
:10172A002C32DCF02D3229F529813A812160298376
:10173A003A830196A11DF60180839183A283F60163
:10174A0080819181A281FC012491A7FD20812B3205
:10175A0039F729813A812460EACF203221F429819C
:10176A003A812860E4CF233251F429813A812061F9
:10177A00DECF203321F429813A812260D8CFB70104
:10178A00C6010E94C8138D839E8397FF0BC02981CF
:10179A003A81F1E02F2729833A839195819591091E
:1017AA008D839E8389819A8180FF03C08D7F89837F
:1017BA009A83F60180819181A281FC012491A7FD7F
:1017CA0020812E3261F40196A11DF6018083918356
:1017DA00A283B701C6010E94C8138B839C83C601EA
:1017EA000E948211182FD6012C9111968C91119773
:1017FA0012969C91E22FF82F849197FD8081082EF2
:10180A00000C990B0E946C16893609F44AC084F4BC
:10181A00833609F419C134F4853209F445C1813695
:10182A00E1F050C18436E9F188360CF4E9C04AC1C6
:10183A00803709F4B0C03CF48E3609F4D6C08F362E
:10184A0009F46DC03FC1853709F44AC0883709F4E5
:10185A0085C0833709F036C10DC1612F70E0A70139
:10186A00CE010B960E940000892B09F448C1F601AB
:10187A0080819181A2819C014A2F2F5F3F4F4F4F58
:10188A00208331834283FC012491A7FD2081AE018C
:10189A00455F5F4FBE016F5F7F4FC4010E9400002A
:1018AA002BC1612F70E0970141E050E0CE010B9609
:1018BA000E948D0F892B09F422C1F6018081918142
:1018CA00A2810196A11D80839183A283AE01455F07
:1018DA005F4FBE016F5F7F4FC4010E941A0F0CC198
:1018EA00612F70E0970140E050E0CE010B960E9414
:1018FA008D0F892B09F403C1F60180819181A281A0
:10190A000196A11D80839183A283AE01455F5F4F3B
:10191A00BE016F5F7F4FC4010E94FE12EDC0612FAE
:10192A0070E0970140E050E0CE010B960E948D0FC7
:10193A00892B09F4E4C0F60180819181A281019684
:10194A00A11D80839183A283AE01455F5F4FBE01D3
:10195A006F5F7F4FC4010E942811CEC0612F70E0D3
:10196A00970140E050E0CE010B960E948D0F892B23
:10197A0009F4C5C0F60180819181A2819C014A2F98
:10198A002F5F3F4F4F4F208331834283FC012491C5
:10199A00A7FD208120C0970140E050E060EF70E091
:1019AA00CE010B960E948D0F892B09F4A8C0F6016F
:1019BA0080819181A2810196A11D80839183A28356
:1019CA008B859C85892B31F400E010E029E332E015
:1019DA0040E08CC028E7AE01455F5F4FBE016F5FF4
:1019EA007F4FC4010E94A30D87C0A501460D571D54
:1019FA00612F70E09701CE010B960E9400007FC014
:101A0A00612F70E0A701CE010B960E940000892B7E
:101A1A0009F475C0F60180819181A2819C014A2F47
:101A2A002F5F3F4F4F4F208331834283FC01249124
:101A3A00A7FD2081AE01455F5F4FBE016F5F7F4FFB
:101A4A00C4010E94000058C0103809F058C0F601BD
:101A5A0080819181A2810196A11D80839183A283B5
:101A6A00D701ED91FC911197CF0102968D939C932A
:101A7A00808126C0103809F042C0F6018081918128
:101A8A00A2810196A11D80839183A283D701ED9142
:101A9A00FC911197CF0103968D939C9320813181FC
:101AAA00428100E010E022C0103849F5F601208199
:101ABA00318142812F5F3F4F4F4F208331834283D1
:101ACA008B870EC085E28B87F601208231824282A3
:101ADA0019821A821D821E828FEF9FEF8B839C834D
:101AEA009E01255F3F4F40E801E010E0BE016F5FB5
:101AFA007F4FC4010E948B138A0D9B1D0AC0F601F9
:101B0A0080819181A2810196A11D80839183A28304
:101B1A00C5012E96CDBFDEBFDF91CF911F910F91E8
:101B2A00FF90EF90DF90CF90BF90AF909F908F90F3
:0C1B3A007F906F904F903F902F90089587
:101B4600AFE0B0E0E9EAFDE00C9420151C016B0162
:101B560049835A832B83FB018281938184809580FC
:101B6600E080F180A680B78097FD03C0E894E1F895
:101B760002C081E090E0E981FA8140805180628074
:101B860073809701207133272C833D838401E4FE03
:101B960007C0411451046104710411F00250110987
:101BA600F701E870FF27EE83FF83E3FE02C00150D2
:101BB6001109F6010084F185E02D3197EE87FF8744
:101BC600EA0DFB1D10829C01201B310B28873987EB
:101BD600C701827099278A879B87EB818E2FEE0F2C
:101BE600990B9C01215431092C873D872E853F8511
:101BF6002230310530F48C819D81892B09F041C05A
:101C06005BC0411451046104710459F18E859F85AE
:101C160001978E879F87C2018F7099278A30910519
:101C260014F4C09602C0895A9F4FEC85FD857A97B9
:101C360048F49C012062215631092A31310510F4FD
:101C46000E945316EE85FF85EA0DFB1D8083015029
:101C5600110984E076946794579447948A95D1F74E
:101C6600C5CF88859985800F911F1816190674F2BD
:101C7600101611060CF0BFCFEA85FB85EF2B31F667
:101C8600BACFE981FA8180819181A281B381892BC2
:101C96008A2B8B2B89F0EE85FF85EA0DFB1D31978C
:101CA6002B8120838E859F8502978E879F87FC01D7
:101CB600EA0DFB1D80E38083EE81FF81EF2B59F057
:101CC6002E853F85215031092E873F87F901EA0D80
:101CD600FB1D80E28083F601208531852150310984
:101CE6008E859F85281B390B8A0D9B1DAC0160E8EC
:101CF6008401C1010E9469129C01F10180819181D8
:101D060090FF06C0F60182819381821793070CF437
:0A1D1600C9012F96E2E10C9451156B
:101D20004F925F926F927F92AF92BF92CF92DF926B
:101D3000EF92FF920F931F93CF93DF93CDB7DEB750
:101D40002A97CDBFDEBF082F5B010F2EF0EAEF2EE2
:101D5000F12CF02DF701108287E00E9401162C0172
:101D6000612C712C76946794579447947694679479
:101D70005794479486E0F701808310E0C12CD12C62
:101D8000760108C0802F0E940116C80ED91EE11CE2
:101D9000F11C1F5F812F90E08A159B0598F3950138
:101DA00040E050E0C701B6010E94A114CA01B90188
:101DB000A30192010E94E2159B01AC01A8EEB3E0E1
:101DC0000E94331620E030EA40E050E00E94A11467
:101DD000E22EF32E5F934F933F932F9384E091E095
:101DE000A0E0AF939F938F938E010F5F1F4F1F93C0
:101DF0000F930E94BD15B80180E80E94691567E045
:101E000071E080E00E940F168E2D9F2DCDBFDEBFAA
:101E10002A96CDBFDEBFDF91CF911F910F91FF902A
:101E2000EF90DF90CF90BF90AF907F906F905F90DA
:041E30004F90089532
:101E3400A2E0B0E0E0E2FFE00C9420154C016B015D
:101E4400FB0122813381A480B580808191818983C3
:101E54009A8366807780FA012080318042805380A3
:101E6400B201A10157FE07C044275527BA01421900
:101E740053096409750937FD03C08D7F89839A83EB
:101E8400950157FC05C0898182FD02C083FF02C011
:101E940021503109CE0101967C010AE010E0C6010F
:101EA4000E94651057FC03C0298122FF0AC00197D4
:101EB400F301E80FF91F57FC02C02BE209C02DE221
:101EC40007C023FF06C00197F301E80FF91F20E2C2
:101ED4002083E980FA80F60120853185215031097B
:101EE400281B390B860D971DAC0160E88501C401E0
:101EF4000E9469129C01F4018081918190FF06C0C7
:101F0400F60182819381821793070CF4C90122960A
:061F1400E2E10C945115FE
:101F1A00CF93DF93DC01F90168387105F1F05CF4C5
:101F2A006138710561F164387105C9F1603871056C
:101F3A0009F056C034C0603C710561F1603F71051B
:101F4A0009F443C0603A710509F04AC0C081D181E1
:101F5A00CE010296808391832AC0C081D181CE01AD
:101F6A00029680839183452B39F04881042E000C18
:101F7A00550B660B770B21C0488150E02EC0C081FB
:101F8A00D181CE01049680839183488159816A81E7
:101F9A007B8113C0C081D181CE0102961AC0C08153
:101FAA00D181CE01029680839183452BA1F048818D
:101FBA005981052E000C660B770B4D935D936D933B
:101FCA007C93139781E090E00DC0C081D181CE014E
:101FDA000396808391834881598160E070E0EDCF58
:0A1FEA0080E090E0DF91CF910895B0
:101FF400AF92BF92CF92DF92EF92FF920F931F9313
:10200400CF93DF93CDB7DEB72A97CDBFDEBF082FBE
:102014005B011092A00010E0C12CD12C760108C005
:10202400802F0E940116C80ED91EE11CF11C1F5FEF
:10203400812F90E08A159B0598F3950140E050E0CC
:10204400C701B6010E94A114CA01B901052E5AE0C4
:10205400660F771F881F991F5A95D1F7502D20E0DE
:1020640030EA40E050E00E94A114E22EF32E5F9388
:102074004F933F932F9384E091E0A0E0AF939F931D
:102084008F938E010F5F1F4F1F930F930E94BD15F7
:10209400B80180E80E9469156AE071E080E00E945E
:1020A4000F168E2D9F2DCDBFDEBF2A96CDBFDEBF6E
:1020B400DF91CF911F910F91FF90EF90DF90CF9020
:0620C400BF90AF900895EB
:1020CA00A0E0B0E0EBE6F0E10C942215DC01280177
:1020DA001696AD90BC901797F70180819181129660
:1020EA00ED91FC9113971896CD91DC911997219750
:1020FA00F7FF02C0E1E0F0E0CA0DDB1D18826901BA
:10210A00A1E0B0E08F01021B130B4C01F2E08F2219
:10211A009924052C000C66087708CE018A199B09B8
:10212A00CA15DB0519F1411551056105710589F0DB
:10213A00CB01BA01A30192010E94A114CA01A62FE0
:10214A00B72F605D6A9341E0C41AD108A901BC01A6
:10215A00E4CF98012C0D3D1D121613064CF31C14E6
:10216A001D0434F48114910419F702C080E090E050
:10217A00AB2B31F4F701208131812F7E208331830B
:0A218A00CDB7DEB7E0E10C94531569
:102194006F927F928F92CF92DF92EF923A01862EC6
:1021A400880F809307090EC08091050982FF0AC039
:1021B40081E0809305098FE99FE00197F1F700C062
:1021C400000004C080910509807C71F380910509A9
:1021D40084FF2EC083E08093040981E030C0E82CA2
:1021E4006301C90ED11CE11CF6018491E7FC8081D6
:1021F400809308090EC08091050982FF0AC081E01E
:1022040080930509EFE9FFE03197F1F700C0000082
:1022140004C08091050986FFEECF8091050984FFF3
:1022240005C083E08093040981E009C09F5F01C079
:1022340090E09217A0F283E08093040980E0EF908D
:0C224400DF90CF908F907F906F900895F6
:10225000A2E0B0E0EEE2F1E10C9424155C016B0128
:10226000FB012281338184809580808191818983E3
:102270009A836680778037FD03C08D7F89839A8338
:10228000FA014081518162817381CE0101967C0106
:1022900008E010E09401C6010E946510298124FF26
:1022A00006C00197F301E80FF91F20E3208329817D
:1022B00023FF06C00197F301E80FF91F20E22083F6
:1022C000E980FA80F6012085318521503109281BEB
:1022D000390B860D971DAC0160E88401C5010E9491
:1022E00069129C01F5018081918190FF06C0F60181
:1022F00082819381821793070CF4C9012296EEE044
:042300000C945515CF
:10230400CF92DF92EF92DC0190E0292F30E0220F90
:10231400331F6901032E000CEE086E2DA601445EE6
:102324005D4F6F4F6A01E62EFA018491E7FC8081CC
:1023340081110DC02F5F3F4F032E000C440B245E10
:102344003D4F4F4FF901849147FD808124C0CD90CA
:10235400DD90EC901297F6014491E7FC40818413E0
:1023640015C02F5F3F4F032E000C440B245E3D4FDE
:102374004F4FF901949147FD90815FEFC51AD50A3B
:10238400E50ACD92DD92EC92129701C09F5F9B30DB
:0E23940008F4BBCF892FEF90DF90CF90089513
:1023A2000F931F93CF93DF93DB01109719F48FEFF5
:1023B2009FEF3DC02D913C91119730FF25C017969C
:1023C2004D915C91189715962D913C911697421755
:1023D200530778F41296ED91FC911397808312962D
:1023E2002D913C9113972F5F3F4F12962D933C9363
:1023F200139717962D913C9118972F5F3F4F179681
:102402002D933C93189713C01D96ED91FC911E9746
:10241200309769F2EB01092F182F0995892B39F6AC
:102422008F81988501968F839887812F902FDF91D6
:08243200CF911F910F91089555
:10243A006F927F928F92EF92FF920F931F93CF9397
:10244A00DF93CDB7DEB76197CDBFDEBFFE01319610
:10245A0051E1DF011D925A95E9F7A2E0B1E0A983A3
:10246A00BA838B839C8377FF09C08FE490E08093C3
:10247A000060909301608FEF9FEF19C03901842E9D
:10248A007C01615071096E837F839801682DA301D5
:10249A00CF010E943915488559852E813F814217FF
:1024AA00530708F49A01F701E20FF31F10826196AD
:1024BA00CDBFDEBFDF91CF911F910F91FF90EF90BB
:0824CA008F907F906F90089540
:1024D2006F927F928F92AF92BF92CF92DF92EF92E2
:1024E200FF920F931F93CF93DF935C013A01862EE5
:1024F200E901670181E0C822DD24E0FC03C0201766
:10250200310758F09E01682DA301C5010E943B14BA
:10251200C017D10710F0CE0118C07801EC1AFD0ADD
:10252200E114F10449F0B50180E290E00E94D1117A
:1025320081E0E81AF108F4CFCD2831F49E01682D2C
:10254200A301C5010E943B14C801DF91CF911F91E5
:102552000F91FF90EF90DF90CF90BF90AF908F9050
:062562007F906F900895C8
:10256800A3E8B0E0EAEBF2E10C9426155C0149011E
:10257800CF57DF4F488359836A83C158D040C12C55
:10258800D12CCF57DF4F2881C158D040CE57DF4FCD
:102598009881C258D040CD57DF4F8881C358D0406A
:1025A800E22FF92F949187FD90819923E9F0740126
:1025B800860120E830E0AE014F5F5F4FBE016F57E4
:1025C8007F4FC5010E943D0B8C0D9D1D8C159D05EF
:1025D8004CF48FE490E080930060909301608FEF5B
:1025E8009FEF03C06C01CDCFC601CD57DF4FECE0A4
:0425F8000C945715D3
:1025FC00A2E0B0E0E4E0F3E10C9424155C016B0183
:10260C00FB01228133818480958080819181898333
:10261C009A836680778037FD03C08D7F89839A8388
:10262C00FA014081518162817381CE0101967C0156
:10263C000AE010E09401C6010E946510E980FA805E
:10264C00F6012085318521503109281B390B860D67
:10265C00971DAC0160E88401C5010E9469129C01C0
:10266C00F5018081918190FF06C0F60182819381F2
:10267C00821793070CF4C9012296EEE00C945515C1
:10268C001F920F920FB60F9211240F931F932F933B
:10269C003F934F935F936F937F938F939F93AF93DE
:1026AC00BF93EF93FF93CF93DF93CDB7DEB72A970A
:1026BC00CDBFDEBF44E16AE08E010F5F1F4FC80142
:1026CC000E946F14B80180E822E132E040E00E94E1
:1026DC00C314892B11F0109202602A96CDBFDEBF75
:1026EC00DF91CF91FF91EF91BF91AF919F918F911E
:1026FC007F916F915F914F913F912F911F910F910E
:0A270C000F900FBE0F901F9018955C
:102716006F927F928F92CF92DF92EF92FF920F93FA
:102726001F93CF93DF936C01FB013901842EC801FF
:10273600C281D38104811581E080F180232B242B73
:1027460031F422E3622E22E0722E20E0822E0097E0
:1027560021F4882DB3010E947F15D7FD04C0C81748
:10276600D90708F4CE019C01682DA301C6010E9479
:102776006912DF91CF911F910F91FF90EF90DF903B
:0A278600CF908F907F906F90089520
:10279000DC012D913D914C911297F901849147FDF7
:1027A00080818A3221F080E090E07AE011C02F5FD2
:1027B0003F4F4F4F2D933D934C93DB01ED91FC9197
:1027C0001197CF0102968D939C93808191810895FA
:1027D0002D913D914C911297F901549147FD5081F3
:1027E00050535A3080F4789FF001799FF00D1124F6
:1027F000CF01850F911D2F5F3F4F4F4F2D933D937D
:082800004C931297E5CF0895F7
:102808000F931F93CF93DF9300D00F92CDB7DEB70E
:10281800611590E1790710F06FEF7FE090E0880F85
:10282800991F8865898380E8489FA001112490E258
:10283800099F8001112480E1289F90011124042B15
:10284800202B472F4F70242B2A836B83AE014F5FB9
:102858005F4F60E823E0809103600E94CA102396CE
:0E286800CDBFDEBFDF91CF911F910F9108957C
:102876006F927F928F92CF92DF92EF920F931F9378
:10288600CF93DF938C016A01E62EE9013A01862E89
:10289600620E731E811C37FD8A94C614D704E804A1
:1028A60079F0F6018491E7FC8081B801082E000CCE
:1028B600990B0E94D1118FEFC81AD80AE80AEDCFFA
:1028C600CE01DF91CF911F910F91EF90DF90CF90C6
:0828D6008F907F906F90089530
:1028DE00EF92FF920F931F93CF93DF938C01F62EFF
:1028EE00E42EC0E0D0E010C00E945C16882359F0A0
:1028FE000E947B16F801ED0FF11D8083882391F065
:10290E00DF5FC0E001C0CF5F2D2F30E08F2D90E054
:10291E0001972817390714F4CE1530F3F801ED0F8F
:10292E00F11D10828D2FDF91CF911F910F91FF908E
:04293E00EF90089579
:10294200A1E21A2EAA1BBB1BFD010DC0AA1FBB1FB1
:10295200EE1FFF1FA217B307E407F50720F0A21B23
:10296200B30BE40BF50B661F771F881F991F1A9490
:1029720069F760957095809590959B01AC01BD01BA
:04298200CF010895E4
:10298600CF92DF92EF926B01E82EF6018491E7FC7D
:102996008081F901549147FD508185130BC088232E
:1029A60041F08FEFC81AD80AE80A2F5F3F4F4F4F02
:1029B600ECCF582F90E0851B9109EF90DF90CF90D8
:0229C600089572
:1029C800880F809307090CC08091050982FF08C011
:1029D800E0E0F9E081E0858383E0848381E0089585
:1029E80080910509807C81F3E0E0F9E0858182959A
:0E29F8008F7091E0892793E094838170089599
:102A0600CF93DF932CE020930204C0E0D9E01B8231
:102A16009B01AC01220F331F441F551F60E074E277
:102A260084EF90E00E94A11425502E8381E08D83CF
:0A2A36008B8380E0DF91CF910895BB
:102A40002F923F924F925F926F927F928F929F92BE
:102A5000AF92BF92CF92DF92EF92FF920F931F93AC
:102A6000CF93DF93CDB7DEB7CA1BDB0BCDBFDEBF85
:022A70000994C7
:102A7200A2E0B0E0EFE3F5E10C942E158C0129837E
:102A82003A839E012F5F3F4F0E94B412F8012081CA
:102A920024FF02C08FEF9FEF2296E4E00C945F15B3
:102AA2002A88398848885F846E847D848C849B84DC
:102AB200AA84B984C884DF80EE80FD800C811B81EA
:102AC200AA81B981CE0FD11DCDBFDEBFED01089520
:102AD200CF92DF92EF926B01E82E06C09FEFC91AE8
:102AE200D90AE90A0E947416F6018491E7FC8081F2
:0C2AF2008111F4CFEF90DF90CF90089599
:102AFE00CF92DF92EF926B01E82EA82FCB01FC0153
:102B0E002491A7FD2081222319F00196A11DF7CF54
:0C2B1E008C199D09EF90DF90CF90089576
:102B2A0097FB072E16F4009407D077FD09D00E9470
:102B3A00A91507FC05D03EF4909581959F4F0895FD
:082B4A00709561957F4F08951D
:102B5200AA1BBB1B51E107C0AA1FBB1FA617B707C1
:102B620010F0A61BB70B881F991F5A95A9F78095DD
:082B72009095BC01CD0108950E
:102B7A00A0E0B0E0E3ECF5E10C9430159E01265F8D
:102B8A003F4F4F81588569858D819E810E94271606
:062B9A00E2E00C9461155D
:102BA000E0E4F4E021E0218322E02283E0E2F8E0A7
:102BB0008087918780E885838681806C868383E027
:042BC000878308956A
:102BC400DB018F939F930E943316BF91AF91A29F15
:102BD400800D911DA39F900DB29F900D1124089517
:102BE400A29FB001B39FC001A39F700D811D11244A
:0E2BF400911DB29F700D811D1124911D089539
:102C0200E0E0F6E0808781E0828780910D0680FF18
:0C2C1200FCCF80911006909111060895EF
:102C1E000E9469158FEF0E9474168FEF0E94741632
:082C2E008FEF0E947416089557
:102C360085E08093A000E0E0F6E0108284E08283E5
:082C4600808181608083089504
:102C4E000F931F9389019A01462F6FEF7FE70E9422
:082C5E001D121F910F91089552
:102C66000E94F215A59F900DB49F900DA49F800D14
:062C7600911D11240895D8
:102C7C00EC010E9487160E948616CE010E948816CF
:062C8C00CE010E94841637
:102C9200809303600E94E414811102C081E00895D0
:042CA20080E0089531
:102CA6009C01215631092A31310510F48F75992777
:022CB60008957F
:102CB80080912408882314F481E0089580E0089521
:102CC80002C00E947B160E945C168111FACF0895FB
:102CD8009C01215431092A31310508F48062089594
:0E2CE8009091240895FFFCCF80932208089558
:0E2CF600809124088823E4F780912008089537
:042D04000C9400002B
:042D08000E948000A5
:022D0C00089528
:022D0E00089526
:022D1000089524
:00000001FF
