:100000000C9456000C942B020C942B020C942B0293
:100010000C942B020C942B020C942B020C942B02AC
:100020000C942B020C942B020C942B020C942B029C
:100030000C942B020C942B020C942B020C942B028C
:100040000C942B020C942B020C942B020C942B027C
:100050000C942B020C942B020C942B020C942B026C
:100060000C942B020C942B020C942B020C942B025C
:100070000C942B020C942B020C942B020C942B024C
:100080000C942B020C942B020C942B020C942B023C
:100090000C942B020C942B020C942B020C942B022C
:1000A0000C942B02600060010004640011241FBE48
:1000B000CFEFCDBFDFE7DEBFE4EAF0E040E017C0FE
:1000C000B591A59135912591059107FD0CC09591AC
:1000D0008591EF01F92FE82F05900D92A217B30734
:1000E000D9F7FE0104C01D92A217B307E1F7EB3A5E
:1000F000F40731F70E9402010C941102F894FFCF2B
:1001000074302E7478743D224F4B220074302E745C
:1001100078743D22493243204552524F5222007496
:0E012000302E7478743D22565F5345542200F1
:10012E00CF92DF92EF92880F80930709E0E0F9E01B
:10013E000DC0858182FF0AC081E0809305098FE999
:10014E009FE00197F1F700C0000003C08581807C1D
:10015E0081F38091050984FD03C0211106C043C0BF
:10016E0083E08093040981E042C06A01E62E2150AB
:10017E00822F90E001969A01462F280F391F411DBC
:10018E0097FD4A95A0E0B9E051E0F6018491E7FCB5
:10019E00808118968C9318970FC015968C91159791
:1001AE0082FF0AC015965C9315978FE99FE0019721
:1001BE00F1F700C0000005C015968C91159786FFCB
:1001CE00ECCF15968C91159784FF05C083E0809334
:1001DE00040981E00CC09FEFC91AD90AE90AC216B8
:1001EE00D306E40691F683E08093040980E0EF9055
:0601FE00DF90CF90089590
:10020400E0E6F0E08CE18087108282E896E00E94CC
:10021400020260EA76E881E090E00E94CA0160E0B0
:1002240071E080E00E94E7018FEF0E941C028FEFD3
:100234000E941C028FEF0E941C022FEF89E698E1B6
:10024400215080409040E1F700C0000080E60E9409
:100254002402882379F06CE071E080E00E94E701D9
:100264008FEF0E941C028FEF0E941C028FEF0E94EE
:100274001C02F1CF00E021E041E060E078E080E0A2
:100284000E9453016FE171E080E00E94E7018FEF6B
:100294000E941C028FEF0E941C028FEF0E941C021E
:0202A400FFCF8A
:1002A6000F931F93CF93DF9300D00F92CDB7DEB796
:1002B600E62FF72FE11590E1F90710F0EFEFFFE0D9
:1002C600880F8865898380E2089F8001112490E168
:1002D600299F90011124202B80E8489FA00111241A
:1002E600422B2F2F2F70422B4A83EB83AE014F5F99
:1002F6005F4F60E823E0809100600E94970023969C
:0E030600CDBFDEBFDF91CF911F910F91089503
:10031400A1E21A2EAA1BBB1BFD010DC0AA1FBB1F05
:10032400EE1FFF1FA217B307E407F50720F0A21B77
:10033400B30BE40BF50B661F771F881F991F1A94E4
:1003440069F760957095809590959B01AC01BD010E
:04035400CF01089538
:10035800880F80930709E0E0F9E00BC0858182FFF0
:1003680008C0E0E0F9E081E0858383E0848380E0F1
:1003780008958581807C91F3E0E0F9E0858182959C
:0C038800817093E0948391E08927089530
:10039400CF93DF932CE020930204C0E0D9E01B82CA
:1003A4009B01AC01220F331F441F551F60E074E210
:1003B40084EF90E00E948A0125502E8381E08D8392
:0A03C4008B8380E0DF91CF91089554
:1003CE00CF92DF92EF926B01E82EFB018491E7FC56
:1003DE008081882361F09FEFC91AD90AE90A0E9429
:1003EE001C02F6018491E7FC80818111F4CFEF901D
:0603FE00DF90CF9008958E
:10040400E0E4F4E021E0218322E02283E0E2F8E06A
:0E0414008087918780EC868383E0878308953C
:10042200EC010E9430020E942F02CE010E94310292
:06043200CE010E942D0224
:10043800E0E2F8E0948195FFFDCF809322080895CB
:0E044800809300600E94AC0191E08927089526
:040456000C94000002
:04045A000E947E007E
:02045E000895FF
:020460000895FD
:020462000895FB
:010464006037
:00000001FF
