:100000000C9456000C94BE050C94BE050C94BE05D1
:100010000C94BE050C94BE050C94BE050C94BE0554
:100020000C94BE050C94BE050C94BE050C94BE0544
:100030000C94BE050C94BE050C94BE050C94BE0534
:100040000C94BE050C94BE050C94BE050C94BE0524
:100050000C94BE050C94BE050C94BE050C94BE0514
:100060000C94BE050C94BE050C94BE050C94BE0504
:100070000C94BE050C94BE050C94BE050C94A8020D
:100080000C94BE050C94BE050C94BE050C94BE05E4
:100090000C94BE050C94BE050C94BE050C94BE05D4
:1000A0000C94BE056000600A000B8A0011241FBE7C
:1000B000CFEFCDBFDFE7DEBFE4EAF0E040E017C0FE
:1000C000B591A59135912591059107FD0CC09591AC
:1000D0008591EF01F92FE82F05900D92A217B30734
:1000E000D9F7FE0104C01D92A217B307E1F7EB3A5E
:1000F000F40731F70E9498030C948705F894FFCF1A
:1001000074302E7478743D2200220074302E74787E
:07011000743D224F4B220059
:10011800CF93DF9300D0CDB7DEB789839A8380E091
:1001280094E021E0FC01218380E094E022E0FC01DE
:10013800228380E098E029813A81FC012087318779
:1001480080E098E020E8FC01258380E098E020EC3E
:10015800FC01268380E098E023E0FC01278300006F
:100168000F900F90DF91CF910895CF93DF930F9267
:10017800CDB7DEB78983000080E098E0FC01848178
:10018800882F90E080729927892BB1F380E098E05E
:100198002981FC01228300000F90DF91CF910895FF
:1001A800CF93DF9300D00F92CDB7DEB769837A8300
:1001B8008B8312C089819A81AB819C014A2F2F5F62
:1001C8003F4F4F4F29833A834B83FC019A2F8491E9
:1001D80097FD80810E94B90089819A81AB81FC01D9
:1001E8009A2F849197FD8081882321F70000239618
:1001F800CDBFDEBFDF91CF910895CF93DF93CDB709
:10020800DEB7000080E098E0FC0184818823D4F701
:1002180080E098E0FC018081DF91CF910895CF9331
:10022800DF93CDB7DEB780E098E0FC018481881FBA
:100238008827881FDF91CF9108950F931F93CF933D
:10024800DF93CDB7DEB72A97CDBFDEBF8D839E8300
:100258006F83788749875A8719821A821B821C8282
:1002680046C00E941301882391F12D813E81898126
:100278009A818901080F191F0E940101F8018083E2
:100288002D813E8189819A81820F931FFC01808193
:100298008A3051F02D813E8189819A81820F931F86
:1002A800FC0180818D3059F42D813E8189819A81AC
:1002B800820F931FFC01108289819A812FC0898146
:1002C8009A81019689839A831B821C8210C0898532
:1002D8009A85892B61F08B819C8101968B839C8305
:1002E8002B813C8189859A852817390760F48F818D
:1002F80098859C012150310989819A818217930739
:1003080008F4AFCF01C000002D813E8189819A8118
:10031800820F931FFC01108289819A812A96CDBF92
:10032800DEBFDF91CF911F910F910895CF93DF9397
:1003380000D0CDB7DEB789839A8380E494E021E0CA
:10034800FC01218380E494E022E0FC01228380E226
:1003580098E029813A81FC012087318780E298E082
:1003680020E8FC01258380E298E020ECFC0126834C
:1003780080E298E023E0FC01278300000F900F90B3
:10038800DF91CF910895CF93DF930F92CDB7DEB76A
:100398008983000080E298E0FC018481882F90E046
:1003A80080729927892BB1F380E298E02981FC01BA
:1003B800228300000F90DF91CF910895CF93DF93B0
:1003C80000D00F92CDB7DEB769837A838B8312C0D2
:1003D80089819A81AB819C014A2F2F5F3F4F4F4FF4
:1003E80029833A834B83FC019A2F849197FD80815E
:1003F8000E94C70189819A81AB81FC019A2F84915F
:1004080097FD8081882321F700002396CDBFDEBFAA
:10041800DF91CF910895CF93DF93CDB7DEB700007A
:1004280080E298E0FC0184818823D4F780E298E098
:10043800FC018081DF91CF910895CF93DF93CDB7F1
:10044800DEB780E298E0FC018481881F8827881F36
:10045800DF91CF9108950F931F93CF93DF93CDB77B
:10046800DEB72A97CDBFDEBF8D839E836F837887E3
:1004780049875A8719821A821B821C8246C00E94A9
:100488002102882391F12D813E8189819A818901F8
:10049800080F191F0E940F02F80180832D813E81E9
:1004A80089819A81820F931FFC0180818A3051F0E3
:1004B8002D813E8189819A81820F931FFC01808161
:1004C8008D3059F42D813E8189819A81820F931F45
:1004D800FC01108289819A812FC089819A810196B5
:1004E80089839A831B821C8210C089859A85892BEF
:1004F80061F08B819C8101968B839C832B813C814D
:1005080089859A852817390760F48F8198859C0119
:100518002150310989819A818217930708F4AFCF56
:1005280001C000002D813E8189819A81820F931F2D
:10053800FC01108289819A812A96CDBFDEBFDF91A6
:08054800CF911F910F9108955E
:100550001F920F920FB60F9211240F931F932F9398
:100560003F934F935F936F937F938F939F93AF933B
:10057000BF93EF93FF93CF93DF93CDB7DEB7699728
:10058000CDBFDEBF8AE0E0E0F0E6DE0150960190EC
:100590000D928A95E1F719821FC00E9421028823DB
:1005A000D9F08981082F10E00E940F02282FCE0178
:1005B0004096800F911FFC0120838981882F90E055
:1005C0009E01205F3F4F820F931FFC018081882393
:1005D00039F089818F5F898389818A30F0F201C087
:1005E000000060E071E080E00E94E201CE014096F0
:1005F000CC01A0E8AA2FBC018A2F0E94E20169E089
:1006000071E080E00E94E2018FEF0E94C7018FEF4E
:100610000E94C7018FEF0E94C70180E090E0AAEF1F
:10062000B4E48A839B83AC83BD8320E030E04AE757
:1006300055E46A817B818C819D810E94B705DC0134
:10064000CB018E839F83A887B98720E030E040E804
:100650005FE36E817F81888599850E94AD0588233F
:100660002CF481E090E08A879B873FC020E03FEF39
:100670004FE757E46E817F81888599850E94B20596
:1006800018164CF520E030E040E251E46A817B81AD
:100690008C819D810E94B705DC01CB01BC01CD019D
:1006A0000E940105DC01CB018A879B870FC080E98E
:1006B00091E08C879D878C859D850197F1F78C87CC
:1006C0009D878A859B8501978A879B878A859B85DD
:1006D000892B69F714C06E817F81888599850E9476
:1006E0000105DC01CB018A879B878A859B858E87E4
:1006F0009F878E859F850197F1F78E879F870000E2
:100700006996CDBFDEBFDF91CF91FF91EF91BF9191
:10071000AF919F918F917F916F915F914F913F9199
:100720002F911F910F910F900FBE0F901F90189552
:10073000CF93DF93CDB7DEB76C97CDBFDEBF82E836
:1007400096E00E949A0180E090E0AAEFB3E48983EA
:100750009A83AB83BC8320E030E04AE755E46981AB
:100760007A818B819C810E94B705DC01CB018B8B48
:100770009C8BAD8BBE8B20E030E040E85FE36B8963
:100780007C898D899E890E94AD0588232CF481E0A7
:1007900090E08F8B988F3FC020E03FEF4FE757E40A
:1007A0006B897C898D899E890E94B20518164CF54B
:1007B00020E030E040E251E469817A818B819C81C4
:1007C0000E94B705DC01CB01BC01CD010E940105EF
:1007D000DC01CB018F8B988F0FC080E991E0898F6E
:1007E0009A8F898D9A8D0197F1F7898F9A8F8F89CA
:1007F000988D01978F8B988F8F89988D892B69F7AA
:1008000014C06B897C898D899E890E940105DC0159
:10081000CB018F8B988F8F89988D8B8F9C8F8B8D31
:100820009C8D0197F1F78B8F9C8F6BE071E080E0DE
:100830000E94E2018FEF0E94C7018FEF0E94C70163
:100840008FEF0E94C701789480E090E0AAE7B4E4BB
:100850008D839E83AF83B88720E030E04AE755E47C
:100860006D817E818F8198850E94B705DC01CB0167
:1008700089879A87AB87BC8720E030E040E85FE358
:1008800069857A858B859C850E94AD0588232CF42B
:1008900081E090E08D879E873FC020E03FEF4FE7EB
:1008A00057E469857A858B859C850E94B205181668
:1008B0004CF520E030E040E251E46D817E818F8193
:1008C00098850E94B705DC01CB01BC01CD010E94D7
:1008D0000105DC01CB018D879E870FC080E991E087
:1008E0008F87988B8F8598890197F1F78F87988BE1
:1008F0008D859E8501978D879E878D859E85892B09
:1009000069F714C069857A858B859C850E940105ED
:10091000DC01CB018D879E878D859E85898B9A8B87
:0E09200089899A890197F1F7898B9A8BFFCF0D
:10092E000FC00E94920538F00E94990520F0952381
:10093E0011F00C94A7050C94BB0511240C94A10581
:10094E000E94540570F3959FC1F3950F50E0551F0B
:10095E00629FF001729FBB27F00DB11D639FAA2706
:10096E00F00DB11DAA1F649F6627B00DA11D661F55
:10097E00829F2227B00DA11D621F739FB00DA11D76
:10098E00621F839FA00D611D221F749F3327A00D30
:10099E00611D231F849F600D211D822F762F6A2FCC
:1009AE0011249F5750409AF0F1F088234AF0EE0F31
:1009BE00FF1FBB1F661F771F881F91505040A9F75E
:1009CE009E3F510580F00C94A7050C94A1055F3F46
:1009DE00E4F3983ED4F3869577956795B795F7959A
:1009EE00E7959F5FC1F7FE2B880F911D9695879512
:0409FE0097F90895C8
:100A02000E945C0588F09F5798F0B92F9927B7513B
:100A1200B0F0E1F0660F771F881F991F1AF0BA95A0
:100A2200C9F714C0B13091F00E94A005B1E0089559
:100A32000C94A005672F782F8827B85F39F0B93F4B
:100A4200CCF3869577956795B395D9F73EF4909553
:0E0A52008095709561957F4F8F4F9F4F08954F
:100A6000990F0008550FAA0BE0E8FEEF16161706BF
:100A7000E807F907C0F012161306E407F50798F027
:100A8000621B730B840B950B39F40A2661F0232B40
:100A9000242B252B21F408950A2609F4A140A695BC
:080AA0008FEF811D811D0895F7
:100AA80057FD9058440F551F59F05F3F71F0479517
:100AB800880F97FB991F61F09F3F79F087950895FC
:100AC800121613061406551FF2CF4695F1DF08C01B
:100AD800161617061806991FF1CF86957105610538
:040AE80008940895D1
:100AEC00092E0394000C11F4882352F0BB0F40F430
:100AFC00BF2B11F460FF04C06F5F7F4F8F4F9F4F70
:020B0C0008954A
:100B0E00EC010E94C3050E94C205CE010E94C405DD
:060B1E00CE010E94C0059B
:0E0B240000240A9416161706180609060895EE
:0E0B320000240A9412161306140605060895F0
:0E0B4000E894BB2766277727CB0197F9089525
:0C0B4E0097F99F6780E870E060E0089570
:0A0B5A000E94300508F481E00895C0
:0A0B64000E94300508F48FEF089599
:080B6E000E9497040C94760527
:060B76009FEF80EC0895E2
:040B7C000C940000D5
:040B80000E947E0051
:020B84000895D2
:020B86000895D0
:020B88000895CE
:0A0B8A000101010101010101010058
:00000001FF
