:100000000C9456000C9431020C9431020C94310281
:100010000C9431020C9431020C9431020C94310294
:100020000C9431020C9431020C9431020C94310284
:100030000C9431020C9431020C9431020C94310274
:100040000C9431020C9431020C9431020C94310264
:100050000C9431020C9431020C9431020C94310254
:100060000C9431020C9431020C9431020C94310244
:100070000C9431020C9431020C9431020C94310234
:100080000C9431020C9431020C9431020C94310224
:100090000C9431020C9431020C9431020C94310214
:1000A0000C943102600060010001330011241FBE76
:1000B000CFEFCDBFDFE7DEBFE4EAF0E040E017C0FE
:1000C000B591A59135912591059107FD0CC09591AC
:1000D0008591EF01F92FE82F05900D92A217B30734
:1000E000D9F7FE0104C01D92A217B307E1F7EB3A5E
:1000F000F40731F70E9405010C941702F894FFCF22
:1001000074302E7478743D224F4B220074302E745C
:1001100078743D2249324320494E49542045525279
:100120004F52220074302E7478743D22565F53452E
:0301300054220056
:01013300606B
:10013400CF92DF92EF92880F80930709E0E0F9E015
:100144000DC0858182FF0AC081E0809305098FE993
:100154009FE00197F1F700C0000003C08581807C17
:1001640081F38091050984FD03C0211106C043C0B9
:1001740083E08093040981E042C06A01E62E2150A5
:10018400822F90E001969A01462F280F391F411DB6
:1001940097FD4A95A0E0B9E051E0F6018491E7FCAF
:1001A400808118968C9318970FC015968C9115978B
:1001B40082FF0AC015965C9315978FE99FE001971B
:1001C400F1F700C0000005C015968C91159786FFC5
:1001D400ECCF15968C91159784FF05C083E080932E
:1001E400040981E00CC09FEFC91AD90AE90AC216B2
:1001F400D306E40691F683E08093040980E0EF904F
:06020400DF90CF90089589
:10020A00E0E6F0E08CE18087108282E896E00E94C6
:10021A00070282E08093020460EA76E881E090E0D7
:10022A000E94CF0160E071E080E00E94EC018FEF54
:10023A000E9422028FEF0E9422028FEF0E94220266
:10024A002FEF87EA91E6215080409040E1F700C005
:10025A00000080E60E942A02882371F06CE071E0B7
:10026A0080E00E94EC018FEF0E9422028FEF0E9431
:10027A0022028FEF0E94220200E021E041E060E0CA
:10028A0078E080E00E94580164E271E080E00E9418
:10029A00EC018FEF0E9422028FEF0E9422028FEF61
:0602AA000E942202FFCFBA
:1002B0000F931F93CF93DF9300D00F92CDB7DEB78C
:1002C000E62FF72FE11590E1F90710F0EFEFFFE0CF
:1002D000880F8865898380E2089F8001112490E15E
:1002E000299F90011124202B80E8489FA001112410
:1002F000422B2F2F2F70422B4A83EB83AE014F5F8F
:100300005F4F60E823E0809100600E949A0023968E
:0E031000CDBFDEBFDF91CF911F910F910895F9
:10031E00A1E21A2EAA1BBB1BFD010DC0AA1FBB1FFB
:10032E00EE1FFF1FA217B307E407F50720F0A21B6D
:10033E00B30BE40BF50B661F771F881F991F1A94DA
:10034E0069F760957095809590959B01AC01BD0104
:04035E00CF0108952E
:10036200880F80930709E0E0F9E00BC0858182FFE6
:1003720008C0E0E0F9E081E0858383E0848380E0E7
:1003820008958581807C91F3E0E0F9E08581829592
:0C039200817093E0948391E08927089526
:10039E00CF93DF932CE020930204C0E0D9E01B82C0
:1003AE009B01AC01220F331F441F551F60E074E206
:1003BE0084EF90E00E948F0125502E8381E08D8383
:0A03CE008B8380E0DF91CF9108954A
:1003D800CF92DF92EF926B01E82EFB018491E7FC4C
:1003E8008081882361F09FEFC91AD90AE90A0E941F
:1003F8002202F6018491E7FC80818111F4CFEF900D
:06040800DF90CF90089583
:10040E00E0E4F4E021E0218322E02283E0E2F8E060
:10041E00808791878681806C868383E087830895A9
:10042E00EC010E9436020E943502CE010E94370274
:06043E00CE010E94330212
:10044400E0E2F8E0948195FFFDCF809322080895BF
:0E045400809300600E94B10191E08927089515
:040462000C940000F6
:040466000E947E0072
:02046A000895F3
:02046C000895F1
:02046E000895EF
:00000001FF
