:100000000C9456000C9423060C9423060C9423069F
:100010000C9423060C9423060C9423060C942306BC
:100020000C9423060C9423060C9423060C942306AC
:100030000C9423060C9423060C9423060C9423069C
:100040000C9423060C9423060C9423060C9423068C
:100050000C9423060C9423060C9423060C9423067C
:100060000C9423060C9423060C9423060C9423066C
:100070000C9423060C9423060C9423060C9423065C
:100080000C9423060C9423060C9423060C9423064C
:100090000C9423060C9423060C9423060C9423063C
:1000A0000C9423066000600A000C540011241FBE4B
:1000B000CFEFCDBFDFE7DEBFE4EAF0E040E017C0FE
:1000C000B591A59135912591059107FD0CC09591AC
:1000D0008591EF01F92FE82F05900D92A217B30734
:1000E000D9F7FE0104C01D92A217B307E1F7EB3A5E
:1000F000F40731F70E9493000C94EC05F894FFCFBD
:1001000074302E7478743D224F4B220074302E745C
:1001100078743D2277616974220074302E7478748B
:050120003D2200220059
:100126000F931F93CF93DF93CDB7DEB7C354D10997
:10013600CDBFDEBF82E896E00E94F30360E071E087
:1001460080E00E9436048FEF0E941B048FEF0E940E
:100156001B048FEF0E941B0480E090E0AAEFB3E43B
:100166008E879F87A88BB98B20E030E04AE755E45D
:100176006E857F85888999890E941C06DC01CB01E2
:100186008A8B9B8BAC8BBD8B20E030E040E85FE335
:100196006A897B898C899D890E94120688232CF4A2
:1001A60081E090E08E8B9F8B3FC020E03FEF4FE7D2
:1001B60057E46A897B898C899D890E9417061816DF
:1001C6004CF520E030E040E251E46E857F85888979
:1001D60099890E941C06DC01CB01BC01CD010E945D
:1001E6006605DC01CB018E8B9F8B0FC080E991E009
:1001F600888F998F888D998D0197F1F7888F998FC0
:100206008E899F8901978E8B9F8B8E899F89892BDB
:1002160069F714C06A897B898C899D890E94660565
:10022600DC01CB018E8B9F8B8E899F898A8F9B8F5A
:100236008A8D9B8D0197F1F78A8F9B8F8AE0E0E08C
:10024600F0E6DE01DA9601900D928A95E1F71982C1
:1002560080E298E0FC01108281E298E021E238E039
:10026600F90120812E7FFC01208312C16CE071E030
:1002760080E00E9436048FEF0E941B048FEF0E94DD
:100286001B048FEF0E941B0480E090E0AAEFB3E40A
:100296008A839B83AC83BD8320E030E04AE755E444
:1002A6006A817B818C819D810E941C06DC01CB01C9
:1002B6008C8F9D8FAE8FBF8F20E030E040E85FE3EC
:1002C6006C8D7D8D8E8D9F8D0E94120688232CF459
:1002D60081E090E088A399A33FC020E03FEF4FE77D
:1002E60057E46C8D7D8D8E8D9F8D0E941706181696
:1002F6004CF520E030E040E251E46A817B818C815C
:100306009D810E941C06DC01CB01BC01CD010E942F
:100316006605DC01CB0188A399A30FC080E991E0B3
:100326008AA39BA38AA19BA10197F1F78AA39BA30A
:1003360088A199A1019788A399A388A199A1892B3E
:1003460069F714C06C8D7D8D8E8D9F8D0E9466051C
:10035600DC01CB0188A399A388A199A18CA39DA3B5
:100366008CA19DA10197F1F78CA39DA30E94750412
:100376008823E1F08981082F10E00E946304282F6A
:10038600CE01CA96800F911FFC0120838981882F98
:1003960090E09E01265C3F4F820F931FFC018081F7
:1003A600882309F47AC089818F5F898380E090E091
:1003B600AAEFB3E48E839F83A887B98720E030E055
:1003C6004AE755E46E817F81888599850E941C06DF
:1003D600DC01CB018EA39FA3A8A7B9A720E030E03C
:1003E60040E85FE36EA17FA188A599A50E94120649
:1003F60088232CF481E090E08AA79BA73FC020E0E9
:100406003FEF4FE757E46EA17FA188A599A50E940B
:10041600170618164CF520E030E040E251E46E81F4
:100426007F81888599850E941C06DC01CB01BC0171
:10043600CD010E946605DC01CB018AA79BA70FC0F0
:1004460080E991E08CA79DA78CA59DA50197F1F762
:100456008CA79DA78AA59BA501978AA79BA78AA576
:100466009BA5892B69F714C06EA17FA188A599A5C4
:100476000E946605DC01CB018AA79BA78AA59BA5DE
:100486008EA79FA78EA59FA50197F1F78EA79FA779
:1004960089818A3008F4EACE01C000006AE171E081
:1004A60080E00E943604CE01CA96CC01A0E8AA2FAD
:1004B600BC018A2F0E94360463E271E080E00E944C
:1004C60036048FEF0E941B048FEF0E941B048FEFF0
:1004D6000E941B0480E090E0AAEFB3E48A879B8722
:1004E600AC87BD8720E030E04AE755E46A857B8526
:1004F6008C859D850E941C06DC01CB0188AB99ABDF
:10050600AAABBBAB20E030E040E85FE368A979A97D
:100516008AA99BA90E94120688232CF481E090E008
:100526008CAB9DAB3FC020E03FEF4FE757E468A997
:1005360079A98AA99BA90E94170618164CF520E0EE
:1005460030E040E251E46A857B858C859D850E947A
:100556001C06DC01CB01BC01CD010E946605DC0155
:10056600CB018CAB9DAB0FC080E991E08EAB9FAB0E
:100576008EA99FA90197F1F78EAB9FAB8CA99DA978
:1005860001978CAB9DAB8CA99DA9892B69F714C0EB
:1005960068A979A98AA99BA90E946605DC01CB01F5
:1005A6008CAB9DAB8CA99DA988AF99AF88AD99AD51
:1005B6000197F1F788AF99AF80E090E0CD5BDF4F10
:0E05C600CDBFDEBFDF91CF911F910F91089541
:1005D400CF93DF9300D0CDB7DEB789839A8380E0D1
:1005E40094E021E0FC01218380E094E022E0FC011E
:1005F400228380E098E029813A81FC0120873187B9
:1006040080E098E020ECFC01268380E098E023E081
:10061400FC01278300000F900F90DF91CF91089584
:10062400CF93DF930F92CDB7DEB78983000080E0CC
:1006340098E0FC018481882F90E080729927892BAF
:10064400B1F380E098E02981FC01228300000F903F
:10065400DF91CF910895CF93DF9300D00F92CDB760
:10066400DEB769837A838B8312C089819A81AB81D7
:100674009C014A2F2F5F3F4F4F4F29833A834B836F
:10068400FC019A2F849197FD80810E941203898135
:100694009A81AB81FC019A2F849197FD80818823F4
:1006A40021F700002396CDBFDEBFDF91CF910895DF
:1006B400CF93DF93CDB7DEB7000080E098E0FC0174
:1006C40084818823D4F780E098E0FC018081DF9165
:1006D400CF910895CF93DF93CDB7DEB780E098E054
:1006E400FC018481881F8827881FDF91CF9108959A
:1006F4000F931F93CF93DF93CDB7DEB72A97CDBF68
:10070400DEBF8D839E836F83788749875A871982DA
:100714001A821B821C8246C00E946C03882391F1BA
:100724002D813E8189819A818901080F191F0E94B8
:100734005A03F80180832D813E8189819A81820F39
:10074400931FFC0180818A3051F02D813E81898183
:100754009A81820F931FFC0180818D3059F42D8181
:100764003E8189819A81820F931FFC0110828981C5
:100774009A812FC089819A81019689839A831B82E9
:100784001C8210C089859A85892B61F08B819C819C
:1007940001968B839C832B813C8189859A852817BC
:1007A400390760F48F8198859C0121503109898132
:1007B4009A818217930708F4AFCF01C000002D81FE
:1007C4003E8189819A81820F931FFC011082898165
:1007D4009A812A96CDBFDEBFDF91CF911F910F91F1
:1007E4000895CF93DF9300D0CDB7DEB789839A8382
:1007F40080E494E021E0FC01218380E494E022E0A1
:10080400FC01228380E298E029813A81FC0120875F
:10081400318780E298E020ECFC01268380E298E0B6
:1008240023E0FC01278300000F900F90DF91CF910C
:100834000895CF93DF930F92CDB7DEB7898300007D
:1008440080E298E0FC018481882F90E080729927EF
:10085400892BB1F380E298E02981FC012283000016
:100864000F90DF91CF910895CF93DF9300D00F9233
:10087400CDB7DEB769837A838B8312C089819A816D
:10088400AB819C014A2F2F5F3F4F4F4F29833A83FF
:100894004B83FC019A2F849197FD80810E941B0455
:1008A40089819A81AB81FC019A2F849197FD808183
:1008B400882321F700002396CDBFDEBFDF91CF91BF
:1008C4000895CF93DF93CDB7DEB7000080E298E0C0
:1008D400FC0184818823D4F780E298E0FC018081C4
:1008E400DF91CF910895CF93DF93CDB7DEB780E248
:1008F40098E0FC018481881F8827881FDF91CF91AD
:1009040008950F931F93CF93DF93CDB7DEB72A9744
:10091400CDBFDEBF8D839E836F83788749875A87D7
:1009240019821A821B821C8246C00E947504882385
:1009340091F12D813E8189819A818901080F191FC6
:100944000E946304F80180832D813E8189819A810C
:10095400820F931FFC0180818A3051F02D813E81EA
:1009640089819A81820F931FFC0180818D3059F413
:100974002D813E8189819A81820F931FFC0110820F
:1009840089819A812FC089819A81019689839A836A
:100994001B821C8210C089859A85892B61F08B810A
:1009A4009C8101968B839C832B813C8189859A85CC
:1009B4002817390760F48F8198859C0121503109EB
:1009C40089819A818217930708F4AFCF01C0000090
:1009D4002D813E8189819A81820F931FFC011082AF
:1009E40089819A812A96CDBFDEBFDF91CF911F9175
:0409F4000F910895C2
:1009F8000FC00E94FE0538F00E94050620F09523DE
:100A080011F00C940C060C94200611240C94F80593
:100A18000E94B90570F3959FC1F3950F50E0551FDB
:100A2800629FF001729FBB27F00DB11D639FAA273B
:100A3800F00DB11DAA1F649F6627B00DA11D661F8A
:100A4800829F2227B00DA11D621F739FB00DA11DAB
:100A5800621F839FA00D611D221F749F3327A00D65
:100A6800611D231F849F600D211D822F762F6A2F01
:100A780011249F5750409AF0F1F088234AF0EE0F66
:100A8800FF1FBB1F661F771F881F91505040A9F793
:100A98009E3F510580F00C940C060C94F8055F3FBE
:100AA800E4F3983ED4F3869577956795B795F795CF
:100AB800E7959F5FC1F7FE2B880F911D9695879547
:040AC80097F90895FD
:100ACC000E94C10588F09F5798F0B92F9927B7510C
:100ADC00B0F0E1F0660F771F881F991F1AF0BA95D6
:100AEC00C9F714C0B13091F00E94F705B1E0089538
:100AFC000C94F705672F782F8827B85F39F0B93F2A
:100B0C00CCF3869577956795B395D9F73EF4909588
:0E0B1C008095709561957F4F8F4F9F4F089584
:100B2A00990F0008550FAA0BE0E8FEEF16161706F4
:100B3A00E807F907C0F012161306E407F50798F05C
:100B4A00621B730B840B950B39F40A2661F0232B75
:100B5A00242B252B21F408950A2609F4A140A695F1
:080B6A008FEF811D811D08952C
:100B720057FD9058440F551F59F05F3F71F047954C
:100B8200880F97FB991F61F09F3F79F08795089531
:100B9200121613061406551FF2CF4695F1DF08C050
:100BA200161617061806991FF1CF8695710561056D
:040BB2000894089506
:100BB600092E0394000C11F4882352F0BB0F40F465
:100BC600BF2B11F460FF04C06F5F7F4F8F4F9F4FA5
:020BD600089580
:100BD800EC010E9428060E942706CE010E942906E1
:060BE800CE010E9425066B
:0E0BEE00E894BB2766277727CB0197F9089577
:0E0BFC0000240A941616170618060906089516
:0E0C0A0000240A941216130614060506089517
:0C0C180097F99F6780E870E060E00895A5
:0A0C24000E94950508F481E0089590
:0A0C2E000E94950508F48FEF089569
:080C38000E94FC040C94DB0592
:060C40009FEF80EC089517
:040C46000C9400000A
:040C4A000E947E0086
:020C4E00089507
:020C5000089505
:020C5200089503
:0A0C5400010101010101010101008D
:00000001FF
