:100000000C9452000C9467000C9467000C946700E9
:100010000C9467000C9467000C9467000C946700C4
:100020000C9467000C9467000C9467000C946700B4
:100030000C9467000C9467000C9467000C946700A4
:100040000C9467000C9467000C9467000C94670094
:100050000C9467000C9467000C9467000C94670084
:100060000C9467000C9467000C9467000C94670074
:100070000C9467000C9467000C9467000C94690062
:100080000C9467000C9467000C9467000C94670054
:100090000C9467000C9467000C9467000C94670044
:1000A0000C94670011241FBECFEFCDBFDFE7DEBF8A
:1000B00010E6A0E0B0E6E6EAF4E002C005900D929A
:1000C000AE32B107D9F70E94B1000C9451020C94E2
:1000D00000001F920F920FB60F9211242F933F939F
:1000E0004F935F936F937F938F939F93AF93BF9340
:1000F000EF93FF93CF93DF93CDB7DEB72A97CDBFB2
:10010000DEBF6AE0CE0101960E94340181E090E6F4
:100110000E941201CE0101960E94120188E090E631
:100120000E9412018FEF0E940A018FEF0E940A01C4
:100130008FEF0E940A012A96CDBFDEBFDF91CF91DB
:10014000FF91EF91BF91AF919F918F917F916F91AF
:100150005F914F913F912F910F900FBE0F901F9085
:100160001895E0E6F0E08CE18087108282E896E066
:100170000E94F80082E08093020460EA76E881E061
:1001800090E00E946A018AE090E60E9412018FEFDF
:100190000E940A018FEF0E940A018FEF0E940A015C
:1001A0002FEF87EA91E6215080409040E1F700C0B0
:1001B000000080E60E94F20181110CC000E021E005
:1001C00041E060E078E080E00E94F9010E942701B0
:1001D0007894FFCF86E190E60E9412018FEF0E9493
:1001E0000A018FEF0E940A018FEF0E940A01E6CFF9
:1001F000E0E4F4E021E0218322E02283E0E2F8E081
:100200008087918780E885838681806C868383E000
:1002100087830895E0E2F8E0948195FFFDCF809315
:1002200022080895CF93DF93EC018881882331F071
:1002300021960E940A0189918111FBCFDF91CF9114
:10024000089580912408881F8827881F0895CF93D8
:10025000DF93C0E2D8E001C088810E9421018111B2
:10026000FBCFDF91CF910895AF92BF92CF92DF92F3
:10027000FF920F931F93CF93DF936C01F12C862F86
:100280008150990BEC016894AA24A5F8BB24B3F81B
:100290000F2D10E00C171D0774F40E942101882314
:1002A000C9F3F5018081F601EF0DF11D80838823EC
:1002B00031F0F394EDCFF601EF0DF11D10828F2D8B
:1002C000DF91CF911F910F91FF90DF90CF90BF9062
:1002D000AF900895CF93DF932CE020930204C0E009
:1002E000D9E01B829B01AC01220F331F441F551F15
:1002F00060E074E284EF90E00E942F0225502E838C
:1003000081E08D838B8380E0DF91CF910895CF933F
:10031000DF93880F80930709E0E0F9E08581807C16
:1003200061F4858182FFFACF81E0809305098FE92E
:100330009FE00197F1F700C000008091050984FD5E
:100340000DC0442369F1DB016F5F7F4F4150460FC1
:10035000572F511DE0E0F9E091E00DC083E080935C
:10036000040981E0DF91CF910895858184FD13C058
:10037000A417B507A9F08D918087858186FDF5CFFB
:10038000858182FFFACF9583CFE9DFE02197F1F7EE
:1003900000C00000EACF83E08093040981E0E2CF4F
:1003A00083E08093040980E0DDCF880F8093070904
:1003B000E0E0F9E08581807C59F4858182FFFACF05
:1003C000E0E0F9E081E0858383E0848380E00895C4
:1003D000E0E0F9E085818295817091E0892793E0E2
:1003E00094830895809300600E94D50191E089274D
:1003F00008950F931F93CF93DF9300D01F92CDB733
:10040000DEB7E62FF72FE11590E1F90710F0EFEFD7
:10041000FFE0880F8865898380E2089F80011124AE
:1004200090E1299F90011124022B80E8489FA001B0
:100430001124042B4F2F4F70042B0A83EB8343E0CE
:10044000BE016F5F7F4F809100600E9487012396FD
:10045000CDBFDEBFDF91CF911F910F910895A1E233
:100460001A2EAA1BBB1BFD010DC0AA1FBB1FEE1F2E
:10047000FF1FA217B307E407F50720F0A21BB30B79
:10048000E40BF50B661F771F881F991F1A9469F7F5
:1004900060957095809590959B01AC01BD01CF0151
:0604A0000895F894FFCF5F
:1004A6006074302E7478743D220074302E74787423
:1004B6003D224F4B220074302E7478743D2249320F
:0E04C6004320494E4954204552524F522200C5
:00000001FF
