:100000000C9458000C94830A0C94830A0C94830A71
:100010000C94830A0C94830A0C94830A0C94830A2C
:100020000C94830A0C94830A0C94830A0C94830A1C
:100030000C94830A0C94830A0C94830A0C94830A0C
:100040000C94830A0C94830A0C94830A0C94830AFC
:100050000C94830A0C94830A0C94830A0C94830AEC
:100060000C94830A0C94830A0C94830A0C94830ADC
:100070000C94830A0C94830A0C94830A0C94DC0677
:100080000C94830A0C94830A0C94830A0C94830ABC
:100090000C94830A0C94830A0C94830A0C94830AAC
:1000A0000C94830A600060028060026026001514D0
:1000B000809101108F7C8060806898ED94BF809360
:1000C000011011241FBECFEFCDBFDFE7DEBFE4EA92
:1000D000F0E040E017C0B591A591359125910591CB
:1000E00007FD0CC095918591EF01F92FE82F059040
:1000F0000D92A217B307D9F7FE0104C01D92A217F3
:10010000B307E1F7E03BF40731F70E9490030C944A
:060110003B0AF894FFCF4A
:1001160074302E7478743D2200220074302E747868
:10012600743D224F4B220074302E7478743D224960
:10013600324320494E4954204552524F52220025FF
:02014600640053
:10014800AEE0B0E0EAEAF0E00C9471094C016B0112
:1001580019821A828FEF9FEF8B839C831D821E82E8
:100168004F83588729873A87A12CB12CD6016D90E7
:100178007C90F301EA0DFB1D808181110FC0D6012F
:10018800ED93FC938081853209F0D3C13F01BFEF25
:100198006B1A7B0AF6016082718219C0853279F385
:1001A800B401082E000C990B0E9493064FEFA41A75
:1001B800B40ADCCF8C32ACF08D32F9F489819A81A3
:1001C800816089839A833196D601ED93FC93D60199
:1001D800ED91FC9180818B3269F789819A818460E5
:1001E800F0CF803221F489819A818860EACF833206
:1001F80051F489819A818061E4CF803321F4898127
:100208009A818260DECFB701C6010E9450088D83B3
:100218009E8397FF0BC029813A81B1E02B27298360
:100228003A839195819591098D839E8389819A81DD
:1002380080FF03C08D7F89839A83D601ED91FC915D
:10024800119780818E3249F43196ED93FC93B70172
:10025800C6010E9450088B839C83C6010E94F60841
:10026800582ED601ED91FC918081082E000C990B37
:100278000E94670A893609F443C084F4833609F476
:1002880002C134F4853209F427C18136E1F030C166
:100298008436B1F188360CF4D9C02AC1803709F404
:1002A8009AC03CF48E3609F4BCC08F3609F461C09C
:1002B8001FC1853709F440C0883709F476C08337F1
:1002C80009F016C1F3C0652D70E0A701CE010B96A9
:1002D8000E940000892B09F426C1D601ED91FC91FA
:1002E8001197CF0101968D939C932081AE01455FB4
:1002F8005F4FBE016F5F7F4FC4010E94000010C1B5
:10030800652D70E0970141E050E0CE010B960E9408
:100318001C05892B09F407C1F6018081918101969A
:1003280080839183AE01455F5F4FBE016F5F7F4F52
:10033800C4010E94AA04F4C0652D70E0970140E052
:1003480050E0CE010B960E941C05892B09F4EBC0E6
:10035800D6018D919C91119701968D939C93AE0136
:10036800455F5F4FBE016F5F7F4FC4010E94240746
:10037800D7C0652D70E0970140E050E0CE010B96A4
:100388000E941C05892B09F4CEC0F6018081918159
:10039800019680839183AE01455F5F4FBE016F5F19
:1003A8007F4FC4010E94E905BBC0652D70E097012D
:1003B80040E050E0CE010B960E941C05892B09F401
:1003C800B2C0D601ED91FC911197CF0101968D93A2
:1003D8009C9320811CC0970140E050E060EF70E0E2
:1003E800CE010B960E941C05892B09F49CC0F601CE
:1003F800808191810196808391838B859C85892B4F
:1004080029F420E030E04FE150E684C028E7AE014F
:10041800455F5F4FBE016F5F7F4FC4010E94A2021C
:100428007FC0A501400F511F652D70E09701CE01D7
:100438000B960E940000892B09F475C0D6018D9196
:100448009C91119701968D939C9373C0652D70E0D4
:10045800A701CE010B960E940000892B09F463C006
:10046800D601ED91FC911197CF0101968D939C9344
:100478002081AE01455F5F4FBE016F5F7F4FC401B2
:100488000E9400004DC0B0E85B124DC0F6018081AB
:100498009181019680839183D701ED91FC91119709
:1004A800CF0102968D939C93808120C0B0E85B12A7
:1004B8003AC0F60180819181019680839183D701AA
:1004C800ED91FC911197CF0102968D939C934081F9
:1004D800518120E030E01EC0B0E85B1224C0F60174
:1004E800208131812F5F3F4F208331838B870DC05F
:1004F80085E28B87D6016D927C9219821A821D82C1
:100508001E828FEF9FEF8B839C8321E030E0AE014A
:10051800455F5F4FBE016F5F7F4FC4010E94AA080D
:100528008A0D9B1D07C0F601808191810196808309
:0C0538009183C5012E96EFE00C94A209FF
:10054400AFE0B0E0E8EAF2E00C946E091C016B0144
:1005540049835A832B83FB01828193818480958014
:1005640000811181A680B78097FD02C00D7F02C073
:1005740081E090E0E981FA8140805180628073805B
:100584009801207133272C833D83740104FF08C034
:10059400411451046104710419F032E0E31AF108C2
:1005A400F801E870FF27EE83FF8303FF03C0F1E047
:1005B400EF1AF108F6010084F185E02D3197EE87FA
:1005C400FF87EA0DFB1D10829C012E193F09288725
:1005D4003987C801827099278A879B87EB818E2F80
:1005E400EE0F990B9C01215431092C873D872E85F0
:1005F4003F852230310530F48C819D81892B09F0AF
:1006040042C05CC0411451046104710461F18E85DF
:100614009F8501978E879F87C2018F7099278A30A3
:10062400910514F4C09602C0895A9F4FEC85FD854C
:100634007A9748F49C012062215631092A31310508
:1006440010F40E94460AEE85FF85EA0DFB1D8083A7
:10065400F1E0EF1AF10884E0769467945794479494
:100664008A95D1F7C4CF888599858E0D9F1D18165C
:1006740019066CF21E141F040CF0BECFEA85FB852C
:10068400EF2B29F6B9CFE981FA8180819181A2818A
:10069400B381892B8A2B8B2B89F0EE85FF85EA0D9C
:1006A400FB1D31972B8120838E859F8502978E8732
:1006B4009F87FC01EA0DFB1D80E38083EE81FF81AF
:1006C400EF2B59F02E853F85215031092E873F8726
:1006D400F901EA0DFB1D80E28083F6014085518516
:1006E400415051092E853F85421B530BB9016A0DB8
:1006F4007B1D9401C1010E94E1079C01F1018081ED
:10070400918190FF06C0F60182819381821793073D
:0C0714000CF4C9012F96E2E10C949F093F
:10072000CF93DF93CDB7DEB76097CDBFDEBFE0E6F6
:10073000F0E08CE18087108282E896E00E94B709A1
:1007400082E08093020460EA76E881E090E00E9413
:10075000340981E291E80E94EB098FEF0E944F0A71
:100760008FEF0E944F0A8FEF0E944F0A81E60E948E
:100770006F0A882369F08DE291E80E94EB098FEF00
:100780000E944F0A8FEF0E944F0A8FEF0E944F0A7C
:1007900000E021E041E060EA7FE080E00E941A088A
:1007A0008FE39CE90197F1F700C0000021E041E0F0
:1007B00064EA71E081E00E941A088FE39CE90197E6
:1007C000F1F700C0000021E041E060E070E082E06D
:1007D0000E941A088FE39CE90197F1F700C000001E
:1007E0000E945F0A78940E94240A21E041E064E6B6
:1007F00070E083E00E941A0882E00E9435048B8733
:100800009C8784E00E9435048D879E8781E00E944A
:1008100035048F87988B8D859E859F938F9385E474
:1008200091E89F938F938E010F5F1F4F1F930F933C
:100830000E94C90986E191E80E94EB09C8010E9463
:10084000EB098FE191E80E94EB098FEF0E944F0ABC
:100850008FEF0E944F0A8FEF0E944F0A0F900F9068
:0A0860000F900F900F900F90FFCF44
:10086A00FF920F931F93CF93DF93CDB7DEB72897ED
:10087A00CDBFDEBFF82E00EA10E0F801108287E053
:10088A000E94170AA0E0B0E089839A83AB83BC83F5
:10089A0089819A81AB81BC81072E7AE0880F991FE2
:1008AA00AA1FBB1F7A95D1F7702D89839A83AB83D0
:1008BA00BC8389819A81AB81BC81072E7CE0B69585
:1008CA00A795979587957A95D1F7702D89839A83FD
:1008DA00AB83BC8386E0F80180838F2D0E94170AC0
:1008EA00A0E0B0E08D839E83AF83B8872D813E81DF
:1008FA004F81588569817A818B819C810E94DB09AD
:10090A009B01AC01A8EEB3E00E94300A6D837E839E
:10091A008F8398876D817E818F81988520E030EA68
:10092A0040E050E00E94D4082D833E834F835887CD
:10093A008D819E81AF81B8852896CDBFDEBFDF91BC
:0A094A00CF911F910F91FF900895C7
:10095400A2E0B0E0E0EBF4E00C946E093C016B0122
:10096400FB0122813381A480B580808191818983B8
:100974009A8386809780FA01208031804280538058
:10098400B201A10157FE07C044275527BA014219F5
:1009940053096409750937FD03C08D7F89839A83E0
:1009A400950157FC05C0898182FD02C083FF02C006
:1009B40021503109CE0101967C010AE010E0C60104
:1009C4000E94840557FC03C0298122FF0AC00197B5
:1009D400F401E80FF91F57FC02C02BE209C02DE215
:1009E40007C023FF06C00197F401E80FF91F20E2B6
:1009F400208309811A81F6014085518541505109AE
:100A0400481B590BB401680F791F9501C3010E945B
:100A1400E1079C01F3018081918190FF06C0F601FA
:100A240082819381821793070CF4C9012296E2E133
:040A34000C949F0976
:100A3800CF93DF93DC01F90168387105F1F05CF4BC
:100A48006138710561F164387105A1F1603871058B
:100A580009F051C02FC0603C710509F441C0603FE6
:100A68007105F1F1603A710509F045C0C081D18185
:100A7800CE0102968083918325C0C081D181CE01A9
:100A8800029680839183452B39F04881042E000C0F
:100A9800550B660B770B1CC0488150E029C0C081FC
:100AA800D181CE01049680839183488159816A81DE
:100AB8007B810EC0C081D181CE0102968083918353
:100AC800452BA1F048815981052E000C660B770B48
:100AD8004D935D936D937C93139781E090E00DC0E7
:100AE800C081D181CE01029680839183488159814A
:100AF80060E070E0EDCF80E090E0DF91CF91089565
:100B0800A0E0B0E0EAE8F5E00C947009DC01280107
:100B18001696AD90BC901797F70180819181129637
:100B2800ED91FC9113971896CD91DC911997219727
:100B3800F7FF02C0E1E0F0E0CA0DDB1D1882690191
:100B4800A1E0B0E08F01021B130B4C01F2E08F22F1
:100B58009924052C000C66087708CE018A199B0990
:100B6800CA15DB0519F1411551056105710589F0B3
:100B7800CB01BA01A30192010E94D408CA01A62F91
:100B8800B72F605D6A9341E0C41AD108A901BC017E
:100B9800E4CF98012C0D3D1D121613064CF31C14BE
:100BA8001D0434F48114910419F702C080E090E028
:100BB800AB2B31F4F701208131812F7E20833183E3
:0A0BC800CDB7DEB7E0E10C94A109FF
:100BD200A2E0B0E0EFEEF5E00C9472094C016B017B
:100BE200FB012281338164807580808191818983B8
:100BF2009A83A680B78037FD03C08D7F89839A834D
:100C0200FA014081518162817381CE0101967C019A
:100C120008E010E09301C6010E948405298124FFA7
:100C220006C00197F501E80FF91F20E3208329810F
:100C320023FF06C00197F501E80FF91F20E2208388
:100C420009811A81F6014085518541505109481B9D
:100C5200590BB501680F791F9301C4010E94E10786
:100C62009C01F4018081918190FF06C0F60182818E
:100C72009381821793070CF4C9012296EEE00C943B
:020C8200A309C4
:100C8400CF93DF93880F80930709E0E0F9E00DC06C
:100C9400858182FF0AC081E0809305098FE99FE086
:100CA4000197F1F700C0000003C08581807C81F3C7
:100CB4008091050984FD03C0411106C02BC083E067
:100CC4008093040981E02AC0DB014150842F90E025
:100CD4000196680F791FE0E0F9E091E08D9180873B
:100CE4000BC0858182FF08C09583CFE9DFE021979F
:100CF400F1F700C0000003C0858186FFF2CF858133
:100D040084FF05C083E08093040981E007C0A6172F
:100D1400B70721F783E08093040980E0DF91CF9146
:020D2400089530
:100D26000F931F93CF93DF93DB012D913C91119786
:100D360030FF25C016964D915C91179714962D910C
:100D46003C9115974217530778F41296ED91FC9152
:100D56001397808312962D913C9113972F5F3F4FE7
:100D660012962D933C93139716962D913C911797B7
:100D76002F5F3F4F16962D933C93179715C01C96E1
:100D8600ED91FC911D97309719F48FEF9FEF0CC0F2
:100D96008B01EC010995892BC1F7F80186819781B2
:100DA600019686839783CE01DF91CF911F910F9194
:020DB60008959E
:100DB8001F920F920FB60F9211242F933F934F93C8
:100DC8005F936F937F938F939F93AF93BF93EF93AB
:100DD800FF93CF93DF93CDB7DEB72A97CDBFDEBFA2
:100DE8006AE0CE0101960E947E0886E191E80E94A1
:100DF800EB09CE0101960E94EB098FE191E80E9470
:100E0800EB098FEF0E944F0A8FEF0E944F0A8FEF76
:100E18000E944F0A2A96CDBFDEBFDF91CF91FF9186
:100E2800EF91BF91AF919F918F917F916F915F915A
:100E38004F913F912F910F900FBE0F901F901895D3
:100E4800A2E0B0E0EAE2F7E00C9472095C016B0101
:100E5800FB012281338184809580808191818983FF
:100E68009A836680778037FD03C08D7F89839A8354
:100E7800FA014081518162817381CE0101967C0122
:100E88000AE010E09401C6010E94840509811A81D4
:100E9800F6014085518541505109481B590BB30152
:100EA800680F791F9401C5010E94E1079C01F501B3
:100EB8008081918190FF06C0F6018281938182171B
:0E0EC80093070CF4C9012296EEE00C94A309E6
:100ED600A2E8B0E0E1E7F7E00C9474095C014A018E
:100EE600CF57DF4F68837983C158D040C12CD12CAE
:100EF600CF57DF4FE881F981C158D04080818823E0
:100F0600E9F07401860120E830E0AE014F5F5F4FE3
:100F1600BE016F577F4FC5010E94A4008C0D9D1D19
:100F26008C159D054CF48FE490E0809300609093BF
:100F360001608FEF9FEF03C06C01DACFC601CE5779
:080F4600DF4FECE00C94A5095B
:100F4E00A0E1B0E0EDEAF7E00C947A09FB01BA01FA
:100F5E00AE014F5F5F4F7A0140E1D7011D924A9576
:100F6E00E9F742E051E049835A838B839C83F7FF74
:100F7E0009C08FE490E080930060909301608FEF42
:100F8E009FEF14C0A9018C013197ED83FE83C70139
:100F9E000E9487094F8158852D813E814217530744
:100FAE0008F49A01F801E20FF31F10826096E6E052
:040FBE000C94AB09DB
:100FC200A0E0B0E0E7EEF7E00C9474096C015B017D
:100FD2007A01E901480181E08822992400FD03C0D9
:100FE2004217530750F0A701B501C6010E945109EB
:100FF200EC16FD0610F0C70117C08E010E191F096D
:101002000115110541F0B60180E290E00E949306BD
:1010120001501109F5CF8114910429F4A701B501FA
:10102200C6010E945109CE01CDB7DEB7ECE00C94A7
:02103200A5090E
:101034000F931F93CF93DF9300D00F92CDB7DEB7FA
:10104400E62FF72FE11590E1F90710F0EFEFFFE03D
:10105400880F8865898380E2089F8001112490E1CC
:10106400299F90011124202B80E8489FA00111247E
:10107400422B2F2F2F70422B4A83EB8343E0BE0178
:101084006F5F7F4F809125600E9442062396CDBFFB
:0C109400DEBFDF91CF911F910F910895F6
:1010A000DC01ED91FC91119780818A3221F080E082
:1010B00090E03AE00EC03196ED93FC93DB01ED91A8
:1010C000FC911197CF0102968D939C938081918121
:1010D0000895ED91FC911197208120532A3068F4F6
:1010E000389FA001399F500D1124CA01820F911D14
:0C10F0003196ED93FC931197ECCF08951E
:1010FC00CF92DF92FF920F931F93CF93DF936C01EC
:10110C00F12CC62FD0E021970DC00E947D0A8823B8
:10111C0059F00E94570AF601EF0DF11D80838823C8
:10112C0051F0F3940F2D10E00C171D0774F3F6011A
:10113C00EF0DF11D10828F2DDF91CF911F910F912B
:08114C00FF90DF90CF900895A1
:10115400A0E0B0E0E0EBF8E00C9476097C01FB0140
:10116400EA01C901A280B380C480D58000811181C5
:10117400209711F4C8E1D0E6009719F4CE010E943B
:10118400090AB7FC04C0A816B90608F4C5019601FB
:10119400AC01BE01C7010E94E107CDB7DEB7EAE0AA
:0411A4000C94A709F7
:1011A800A1E21A2EAA1BBB1BFD010DC0AA1FBB1F63
:1011B800EE1FFF1FA217B307E407F50720F0A21BD5
:1011C800B30BE40BF50B661F771F881F991F1A9442
:1011D80069F760957095809590959B01AC01BD016C
:0411E800CF01089596
:1011EC00CF93DF93EC0190E0E92FF0E0EE0FFF1FBF
:1011FC00EE5FFF498081811102C081810EC0A88100
:10120C00B9812C91821305C091811196A883B98361
:10121C0001C09F5F9B3040F3892FDF91CF910895E0
:10122C00880F80930709E0E0F9E00BC0858182FF0D
:10123C0008C0E0E0F9E081E0858383E0848380E00E
:10124C0008958581807C91F3E0E0F9E085818295B9
:0C125C00817093E0948391E0892708954D
:10126800CF93DF932CE020930204C0E0D9E01B82E7
:101278009B01AC01220F331F441F551F60E074E22D
:1012880084EF90E00E94D40825502E8381E08D835E
:0A1298008B8380E0DF91CF91089571
:1012A200A0E0B0E0E7E5F9E00C9478096C01EB010D
:1012B2008A017B01E40EF51ECE15DF0541F089910E
:1012C200B601082E000C990B0E949306F5CFC801B7
:0A12D200CDB7DEB7E8E00C94A909DF
:1012DC002F923F924F925F926F927F928F929F923A
:1012EC00AF92BF92CF92DF92EF92FF920F931F9328
:1012FC00CF93DF93CDB7DEB7CA1BDB0BCDBFDEBF01
:02130C00099442
:10130E00A2E0B0E0EDE8F9E00C947C098C01498391
:10131E005A83AE014F5F5F4F0E946B07F801208129
:10132E0024FF02C08FEF9FEF2296E4E00C94AD09EC
:10133E002A88398848885F846E847D848C849B8457
:10134E00AA84B984C884DF80EE80FD800C811B8165
:10135E00AA81B981CE0FD11DCDBFDEBFED0108959B
:10136E00E0E4F4E021E0218322E02283E0E2F8E0F1
:10137E008087918780E885838681806C868383E071
:04138E0087830895B4
:10139200A0E0B0E0EFECF9E00C947E09AE01475F0B
:1013A2005F4F6F8178858D819E810E94760AE2E08F
:0413B2000C94AF09DF
:1013B600DB018F939F930E94300ABF91AF91A29F4A
:1013C600800D911DA39F900DB29F900D112408953D
:1013D600CF93DF93EC018881882331F021960E9418
:0E13E6004F0A89918111FBCFDF91CF910895BD
:1013F400A29FB001B39FC001A39F700D811D112452
:0E140400911DB29F700D811D1124911D089540
:10141200FC01AF014F5F5F4F2081222311F0FA01DF
:0C142200F8CF9F01281B390BC901089569
:10142E00E0E0F6E0808781E08287858580FFFDCF52
:0A143E0080911006909111060895A8
:1014480085E08093A000E0E0F6E0108284E08283EB
:0814580080818160808308950A
:101460000E94FA09A59F900DB49F900DA49F800D36
:06147000911D11240895F6
:10147600EC010E94880A0E94870ACE010E94890A0E
:06148600CE010E94850A60
:10148C009C01215631092A31310510F48F759927A9
:02149C000895B1
:10149E00E0E2F8E0948195FFFDCF80932208089555
:1014AE00E0E2F8E084818823ECF78091200808952B
:1014BE0002C00E94570A0E947D0A8111FACF089538
:1014CE009C01215431092A31310508F480620895B6
:0E14DE00809325600E94160991E089270895E9
:0E14EC009A01AB016FEF7FE70E94A7070895FA
:0C14FA0080912408881F8827881F08950F
:041506000C94000041
:04150A000E948900B2
:02150E0008953E
:0215100008953C
:0215120008953A
:1015140068076C094C836A9074A07AC0008068885C
:0615240000846C820081CE
:07152A00286E756C6C2900AE
:06153100286E696C290020
:011537006152
:00000001FF
