:100000000C9452000C94BF000C94BF000C94BF00E1
:100010000C94BF000C94BF000C94BF000C94BF0064
:100020000C94BF000C94BF000C94BF000C94BF0054
:100030000C94BF000C94BF000C94BF000C94BF0044
:100040000C94BF000C94BF000C94BF000C94BF0034
:100050000C94BF000C94BF000C94BF000C94BF0024
:100060000C94BF000C94BF000C94BF000C94BF0014
:100070000C94BF000C94BF000C94BF000C94BF0004
:100080000C94BF000C94BF000C94BF000C94BF00F4
:100090000C94BF000C94BF000C94BF000C94BF00E4
:1000A0000C94BF0011241FBECFEFCDBFDFE7DEBF32
:0C00B0000E9464000C94AC00F894FFCF98
:0C00BC0074302E7478743D224F4B2200EB
:1000C80082E896E00E949D002FEF8BE792E921508D
:1000D80080409040E1F700C000006CEB70E080E0E9
:1000E8000E9482008FEF0E94B7008FEF0E94B70036
:0C00F8008FEF0E94B70080E090E00895B8
:10010400CF92DF92EF926B01E82EFB018491E7FC22
:100114008081882361F09FEFC91AD90AE90A0E94F5
:10012400B700F6018491E7FC80818111F4CFEF9050
:06013400DF90CF9008955A
:10013A00E0E4F4E021E0218322E02283E0E2F8E037
:0E014A008087918780EC868383E08783089509
:10015800EC010E94C4000E94C300CE010E94C500A9
:06016800CE010E94C1005F
:10016E00E0E2F8E0948195FFFDCF80932208089598
:04017E000C940000DD
:040182000E945C007B
:020186000895DA
:020188000895D8
:02018A000895D6
:00000001FF
