:100000000C9456000C941D020C941D020C941D02BD
:100010000C941D020C941D020C941D020C941D02E4
:100020000C941D020C941D020C941D020C941D02D4
:100030000C941D020C941D020C941D020C941D02C4
:100040000C941D020C941D020C941D020C941D02B4
:100050000C941D020C941D020C941D020C941D02A4
:100060000C941D020C941D020C941D020C941D0294
:100070000C941D020C941D020C941D020C9498000B
:100080000C941D020C941D020C941D020C941D0274
:100090000C941D020C941D020C941D020C941D0264
:1000A0000C941D026000600100012F0011241FBE8E
:1000B000CFEFCDBFDFE7DEBFE4EAF0E040E017C0FE
:1000C000B591A59135912591059107FD0CC09591AC
:1000D0008591EF01F92FE82F05900D92A217B30734
:1000E000D9F7FE0104C01D92A217B307E1F7EB3A5E
:1000F000F40731F70E94E8000C94ED01F894FFCF6B
:1001000074302E7478743D2200220074302E74787E
:10011000743D224F4B220074302E7478743D224976
:0F012000324320494E4954204552524F5222003B
:01012F00606F
:100130001F920F920FB60F9211240F931F932F93BC
:100140003F934F935F936F937F938F939F93AF935F
:10015000BF93EF93FF93CF93DF93CDB7DEB72A978B
:10016000CDBFDEBF6AE08E010F5F1F4FC8010E9446
:10017000370160E071E080E00E94C001B80180E8D2
:100180000E94C00169E071E080E00E94C0018FEF31
:100190000E94F8018FEF0E94F8018FEF0E94F80192
:1001A0002A96CDBFDEBFDF91CF91FF91EF91BF9136
:1001B000AF919F918F917F916F915F914F913F91FF
:1001C0002F911F910F910F900FBE0F901F901895B8
:1001D000E0E6F0E08CE18087108282E896E00E9401
:1001E000DB0182E08093020460EA76E881E090E03F
:1001F0000E94A3016BE071E080E00E94C0018FEFDC
:100200000E94F8018FEF0E94F8018FEF0E94F80121
:100210002FEF37EA81E6215030408040E1F700C0FF
:10022000000080E60E941002882371F067E171E00F
:1002300080E00E94C0018FEF0E94F8018FEF0E94C2
:10024000F8018FEF0E94F8010E940802789480E480
:1002500080930104E0E0F4E09FEF23ED30E3915060
:0E02600020403040E1F700C000008783F5CF5A
:10026E00CF92DF92FF920F931F93CF93DF936C0188
:10027E00F12CC62FD0E021970DC00E9417028823C3
:10028E0059F00E940002F601EF0DF11D80838823C4
:10029E0051F0F3940F2D10E00C171D0774F3F601B7
:1002AE00EF0DF11D10828F2DDF91CF911F910F91C8
:0802BE00FF90DF90CF9008953E
:1002C600A1E21A2EAA1BBB1BFD010DC0AA1FBB1F54
:1002D600EE1FFF1FA217B307E407F50720F0A21BC6
:1002E600B30BE40BF50B661F771F881F991F1A9433
:1002F60069F760957095809590959B01AC01BD015D
:04030600CF01089586
:10030A00880F80930709E0E0F9E00BC0858182FF3E
:10031A0008C0E0E0F9E081E0858383E0848380E03F
:10032A0008958581807C91F3E0E0F9E085818295EA
:0C033A00817093E0948391E0892708957E
:10034600CF93DF932CE020930204C0E0D9E01B8218
:100356009B01AC01220F331F441F551F60E074E25E
:1003660084EF90E00E94630125502E8381E08D8307
:0A0376008B8380E0DF91CF910895A2
:10038000CF92DF92EF926B01E82EFB018491E7FCA4
:100390008081882361F09FEFC91AD90AE90A0E9477
:1003A000F801F6018491E7FC80818111F4CFEF9090
:0603B000DF90CF900895DC
:1003B600E0E4F4E021E0218322E02283E0E2F8E0B9
:1003C6008087918780E885838681806C868383E039
:0403D600878308957C
:1003DA00EC010E9422020E942102CE010E94230205
:0603EA00CE010E941F027B
:1003F000E0E2F8E0948195FFFDCF80932208089514
:10040000E0E2F8E084818823ECF7809120080895E9
:1004100002C00E9400020E9417028111FACF0895C3
:0E042000809300600E94850191E08927089575
:0C042E0080912408881F8827881F0895EB
:04043A000C9400001E
:04043E000E947E009A
:0204420008951B
:02044400089519
:02044600089517
:00000001FF
