:100000000C9456000C94C7020C94C7020C94C702BF
:100010000C94C7020C94C7020C94C7020C94C7023C
:100020000C94C7020C94C7020C94C7020C94C7022C
:100030000C94C7020C94C7020C94C7020C94C7021C
:100040000C94C7020C94C7020C94C7020C94C7020C
:100050000C94C7020C94C7020C94C7020C94C702FC
:100060000C94C7020C94C7020C94C7020C94C702EC
:100070000C94C7020C94C7020C94C7020C945A014A
:100080000C94C7020C94C7020C94C7020C94C702CC
:100090000C94C7020C94C7020C94C7020C94C702BC
:1000A0000C94C7026000600100012F0011241FBEE4
:1000B000CFEFCDBFDFE7DEBFE4EAF0E040E017C0FE
:1000C000B591A59135912591059107FD0CC09591AC
:1000D0008591EF01F92FE82F05900D92A217B30734
:1000E000D9F7FE0104C01D92A217B307E1F7EB3A5E
:1000F000F40731F70E9403010C949702F894FFCFA4
:1001000074302E7478743D2200220074302E74787E
:10011000743D224F4B220074302E7478743D224976
:0F012000324320494E4954204552524F5222003B
:01012F00606F
:10013000CF92DF92EF92880F80930709E0E0F9E019
:100140000DC0858182FF0AC081E0809305098FE997
:100150009FE00197F1F700C0000003C08581807C1B
:1001600081F38091050984FD03C0211106C043C0BD
:1001700083E08093040981E042C06A01E62E2150A9
:10018000822F90E001969A01462F280F391F411DBA
:1001900097FD4A95A0E0B9E051E0F6018491E7FCB3
:1001A000808118968C9318970FC015968C9115978F
:1001B00082FF0AC015965C9315978FE99FE001971F
:1001C000F1F700C0000005C015968C91159786FFC9
:1001D000ECCF15968C91159784FF05C083E0809332
:1001E000040981E00CC09FEFC91AD90AE90AC216B6
:1001F000D306E40691F683E08093040980E0EF9053
:06020000DF90CF9008958D
:10020600E0E6F0E08CE18087108282E896E00E94CA
:10021600850282E08093020460EA76E881E090E05D
:100226000E944D026BE071E080E00E946A028FEF4F
:100236000E94A2028FEF0E94A2028FEF0E94A202EA
:100246002FEF37EA81E6215030408040E1F700C0C9
:10025600000080E60E94BA02882371F067E171E02F
:1002660080E00E946A028FEF0E94A2028FEF0E9436
:10027600A2028FEF0E94A20200E021E041E060E0CE
:1002860078E080E00E94AA010E94B202789480E49D
:1002960080930104E0E0F4E09FEF23ED30E391501A
:0E02A60020403040E1F700C000008783F5CF14
:1002B4001F920F920FB60F9211240F931F932F9337
:1002C4003F934F935F936F937F938F939F93AF93DA
:1002D400BF93EF93FF93CF93DF93CDB7DEB72A9706
:1002E400CDBFDEBF6AE08E010F5F1F4FC8010E94C1
:1002F400E10160E071E080E00E946A02B80180E8F8
:100304000E946A0269E071E080E00E946A028FEF55
:100314000E94A2028FEF0E94A2028FEF0E94A2020B
:100324002A96CDBFDEBFDF91CF91FF91EF91BF91B0
:10033400AF919F918F917F916F915F914F913F9179
:100344002F911F910F910F900FBE0F901F90189532
:100354000F931F93CF93DF9300D00F92CDB7DEB7E7
:10036400E62FF72FE11590E1F90710F0EFEFFFE02A
:10037400880F8865898380E2089F8001112490E1B9
:10038400299F90011124202B80E8489FA00111246B
:10039400422B2F2F2F70422B4A83EB83AE014F5FEA
:1003A4005F4F60E823E0809100600E9498002396EC
:0E03B400CDBFDEBFDF91CF911F910F91089555
:1003C200CF92DF92FF920F931F93CF93DF936C0133
:1003D200F12CC62FD0E021970DC00E94C1028823C4
:1003E20059F00E94AA02F601EF0DF11D80838823C5
:1003F20051F0F3940F2D10E00C171D0774F3F60162
:10040200EF0DF11D10828F2DDF91CF911F910F9172
:08041200FF90DF90CF900895E8
:10041A00A1E21A2EAA1BBB1BFD010DC0AA1FBB1FFE
:10042A00EE1FFF1FA217B307E407F50720F0A21B70
:10043A00B30BE40BF50B661F771F881F991F1A94DD
:10044A0069F760957095809590959B01AC01BD0107
:04045A00CF01089531
:10045E00880F80930709E0E0F9E00BC0858182FFE9
:10046E0008C0E0E0F9E081E0858383E0848380E0EA
:10047E0008958581807C91F3E0E0F9E08581829595
:0C048E00817093E0948391E08927089529
:10049A00CF93DF932CE020930204C0E0D9E01B82C3
:1004AA009B01AC01220F331F441F551F60E074E209
:1004BA0084EF90E00E940D0225502E8381E08D8307
:0A04CA008B8380E0DF91CF9108954D
:1004D400CF92DF92EF926B01E82EFB018491E7FC4F
:1004E4008081882361F09FEFC91AD90AE90A0E9422
:1004F400A202F6018491E7FC80818111F4CFEF9090
:06050400DF90CF90089586
:10050A00E0E4F4E021E0218322E02283E0E2F8E063
:10051A008087918780E885838681806C868383E0E3
:04052A008783089526
:10052E00EC010E94CC020E94CB02CE010E94CD02B1
:06053E00CE010E94C9027B
:10054400E0E2F8E0948195FFFDCF809322080895BE
:10055400E0E2F8E084818823ECF780912008089594
:1005640002C00E94AA020E94C1028111FACF08951A
:0E057400809300600E942F0291E08927089575
:0C05820080912408881F8827881F089596
:04058E000C940000C9
:040592000E947E0045
:020596000895C6
:020598000895C4
:02059A000895C2
:00000001FF
