:100000000C9452000C945A040C945A040C945A0404
:100010000C945A040C945A040C945A040C945A04E8
:100020000C945A040C945A040C945A040C945A04D8
:100030000C945A040C945A040C945A040C945A04C8
:100040000C945A040C945A040C945A040C945A04B8
:100050000C945A040C945A040C945A040C945A04A8
:100060000C945A040C945A040C945A040C945A0498
:100070000C945A040C945A040C945A040C945A0488
:100080000C945A040C945A040C945A040C945A0478
:100090000C945A040C945A040C945A040C945A0468
:1000A0000C945A0411241FBECFEFCDBFDFE7DEBF93
:0C00B0000E947C020C942304F894FFCF03
:1000BC0074302E7478743D224F4B220074302E74A1
:0700CC0078743D22002200C0
:1000D400CF93DF9300D0CDB7DEB789839A8380E0D6
:1000E40094E021E0FC01218380E094E022E0FC0123
:1000F400228380E098E029813A81FC0120873187BE
:1001040080E098E020ECFC01268380E098E023E086
:10011400FC01278300000F900F90DF91CF91089589
:10012400CF93DF930F92CDB7DEB78983000080E0D1
:1001340098E0FC018481882F90E080729927892BB4
:10014400B1F380E098E02981FC01228300000F9044
:10015400DF91CF910895CF93DF9300D00F92CDB765
:10016400DEB769837A838B8312C089819A81AB81DC
:100174009C014A2F2F5F3F4F4F4F29833A834B8374
:10018400FC019A2F849197FD80810E9492008981BD
:100194009A81AB81FC019A2F849197FD80818823F9
:1001A40021F700002396CDBFDEBFDF91CF910895E4
:1001B400CF93DF93CDB7DEB7000080E098E0FC0179
:1001C40084818823D4F780E098E0FC018081DF916A
:1001D400CF910895CF93DF93CDB7DEB780E098E059
:1001E400FC018481881F8827881FDF91CF9108959F
:1001F4000F931F93CF93DF93CDB7DEB72A97CDBF6D
:10020400DEBF8D839E836F83788749875A871982DF
:100214001A821B821C8246C00E94EC00882391F142
:100224002D813E8189819A818901080F191F0E94BD
:10023400DA00F80180832D813E8189819A81820FC1
:10024400931FFC0180818A3051F02D813E81898188
:100254009A81820F931FFC0180818D3059F42D8186
:100264003E8189819A81820F931FFC0110828981CA
:100274009A812FC089819A81019689839A831B82EE
:100284001C8210C089859A85892B61F08B819C81A1
:1002940001968B839C832B813C8189859A852817C1
:1002A400390760F48F8198859C0121503109898137
:1002B4009A818217930708F4AFCF01C000002D8103
:1002C4003E8189819A81820F931FFC01108289816A
:1002D4009A812A96CDBFDEBFDF91CF911F910F91F6
:1002E4000895CF93DF9300D0CDB7DEB789839A8387
:1002F40080E494E021E0FC01218380E494E022E0A6
:10030400FC01228380E298E029813A81FC01208764
:10031400318780E298E020ECFC01268380E298E0BB
:1003240023E0FC01278300000F900F90DF91CF9111
:100334000895CF93DF930F92CDB7DEB78983000082
:1003440080E298E0FC018481882F90E080729927F4
:10035400892BB1F380E298E02981FC01228300001B
:100364000F90DF91CF910895CF93DF9300D00F9238
:10037400CDB7DEB769837A838B8312C089819A8172
:10038400AB819C014A2F2F5F3F4F4F4F29833A8304
:100394004B83FC019A2F849197FD80810E949B01DD
:1003A40089819A81AB81FC019A2F849197FD808188
:1003B400882321F700002396CDBFDEBFDF91CF91C4
:1003C4000895CF93DF93CDB7DEB7000080E298E0C5
:1003D400FC0184818823D4F780E298E0FC018081C9
:1003E400DF91CF910895CF93DF93CDB7DEB780E24D
:1003F40098E0FC018481881F8827881FDF91CF91B2
:1004040008950F931F93CF93DF93CDB7DEB72A9749
:10041400CDBFDEBF8D839E836F83788749875A87DC
:1004240019821A821B821C8246C00E94F50188230D
:1004340091F12D813E8189819A818901080F191FCB
:100444000E94E301F80180832D813E8189819A8194
:10045400820F931FFC0180818A3051F02D813E81EF
:1004640089819A81820F931FFC0180818D3059F418
:100474002D813E8189819A81820F931FFC01108214
:1004840089819A812FC089819A81019689839A836F
:100494001B821C8210C089859A85892B61F08B810F
:1004A4009C8101968B839C832B813C8189859A85D1
:1004B4002817390760F48F8198859C0121503109F0
:1004C40089819A818217930708F4AFCF01C0000095
:1004D4002D813E8189819A81820F931FFC011082B4
:1004E40089819A812A96CDBFDEBFDF91CF911F917A
:0404F4000F910895C7
:1004F800CF93DF93CDB7DEB76897CDBFDEBF82E875
:1005080096E00E94730180E090E0AAEFB4E489834A
:100518009A83AB83BC8320E030E04AE755E46981E5
:100528007A818B819C810E945304DC01CB018D83ED
:100538009E83AF83B88720E030E040E85FE36D81B9
:100548007E818F8198850E94490488232CF481E05C
:1005580090E089879A873FC020E03FEF4FE757E454
:100568006D817E818F8198850E944E0418164CF506
:1005780020E030E040E251E469817A818B819C81FE
:100588000E945304DC01CB01BC01CD010E949D03F4
:10059800DC01CB0189879A870FC080E991E08B87BE
:1005A8009C878B859C850197F1F78B879C8789852C
:1005B8009A85019789879A8789859A85892B69F70A
:1005C80014C06D817E818F8198850E949D03DC0116
:1005D800CB0189879A8789859A858D879E878D859E
:1005E8009E850197F1F78D879E876CEB70E080E020
:1005F8000E94B6018FEF0E949B018FEF0E949B0122
:100608008FEF0E949B01CE010F9640E050E06AE018
:1006180070E00E94030268EC70E080E00E94B6017E
:10062800CE010F96CC01A0E8AA2FBC018A2F0E9408
:10063800B60161ED70E080E00E94B6018FEF0E9484
:100648009B018FEF0E949B018FEF0E949B0180E02E
:0E06580090E06896CDBFDEBFDF91CF91089590
:100666000FC00E94350438F00E943C0420F0952308
:1006760011F00C9443040C94570411240C942F0489
:100686000E94F00370F3959FC1F3950F50E0551F3C
:10069600629FF001729FBB27F00DB11D639FAA27D1
:1006A600F00DB11DAA1F649F6627B00DA11D661F20
:1006B600829F2227B00DA11D621F739FB00DA11D41
:1006C600621F839FA00D611D221F749F3327A00DFB
:1006D600611D231F849F600D211D822F762F6A2F97
:1006E60011249F5750409AF0F1F088234AF0EE0FFC
:1006F600FF1FBB1F661F771F881F91505040A9F729
:100706009E3F510580F00C9443040C942F045F3FE8
:10071600E4F3983ED4F3869577956795B795F79564
:10072600E7959F5FC1F7FE2B880F911D96958795DC
:0407360097F9089592
:10073A000E94F80388F09F5798F0B92F9927B7516C
:10074A00B0F0E1F0660F771F881F991F1AF0BA956B
:10075A00C9F714C0B13091F00E942E04B1E0089597
:10076A000C942E04672F782F8827B85F39F0B93F89
:10077A00CCF3869577956795B395D9F73EF490951E
:0E078A008095709561957F4F8F4F9F4F08951A
:10079800990F0008550FAA0BE0E8FEEF161617068A
:1007A800E807F907C0F012161306E407F50798F0F2
:1007B800621B730B840B950B39F40A2661F0232B0B
:1007C800242B252B21F408950A2609F4A140A69587
:0807D8008FEF811D811D0895C2
:1007E00057FD9058440F551F59F05F3F71F04795E2
:1007F000880F97FB991F61F09F3F79F087950895C7
:10080000121613061406551FF2CF4695F1DF08C0E5
:10081000161617061806991FF1CF86957105610502
:04082000089408959B
:10082400092E0394000C11F4882352F0BB0F40F4FA
:10083400BF2B11F460FF04C06F5F7F4F8F4F9F4F3A
:02084400089515
:10084600EC010E945F040E945E04CE010E946004D7
:06085600CE010E945C04CB
:0E085C00E894BB2766277727CB0197F908950C
:0E086A0000240A9416161706180609060895AB
:0E08780000240A9412161306140605060895AD
:0C08860097F99F6780E870E060E008953B
:0A0892000E94CC0308F481E00895F1
:0A089C000E94CC0308F48FEF0895CA
:0808A6000E9433030C941204BC
:0608AE009FEF80EC0895AD
:0408B4000C940000A0
:0408B8000E945C003E
:0208BC0008959D
:0208BE0008959B
:0208C000089599
:00000001FF
